:020000040800F2
:10000000380D00209D01000837220008B31A0008AF
:100010003522000823030008A33400080000000074
:100020000000000000000000000000005D2A000841
:100030002503000800000000392200085F2A00089C
:10004000B7010008B7010008B7010008B7010008B0
:10005000B7010008B7010008B7010008B7010008A0
:10006000B7010008B7010008B7010008B701000890
:10007000B7010008B7010008B7010008B701000880
:10008000B7010008B7010008B7010008B701000870
:10009000B7010008B7010008B7010008B701000860
:1000A000B7010008B7010008B7010008B701000850
:1000B000B7010008B7010008B7010008B701000840
:1000C000B7010008B7010008B7010008B701000830
:1000D000B70100085D32000869320008B701000866
:1000E000B7010008B7010008B7010008B701000810
:1000F000492B00083D2B0008B7010008B701000894
:10010000B7010008B7010008B7010008B7010008EF
:10011000B7010008B7010008B7010008B7010008DF
:10012000B7010008B7010008B7010008B7010008CF
:10013000B7010008B7010008B7010008B7010008BF
:10014000B7010008B7010008B7010008B7010008AF
:10015000B7010008B7010008B7010008B70100089F
:10016000B7010008B7010008B7010008B70100088F
:10017000B7010008B7010008B7010008000000003F
:10018000B7010008B7010008DFF80CD000F08CF8C8
:100190000048004721350008380D002006488047F8
:1001A00006480047FEE7FEE7FEE7FEE7FEE7FEE75C
:1001B000FEE7FEE7FEE7FEE7E92A000889010008FE
:1001C0002DE9F05F0546002092469B46884606468C
:1001D000814640241BE0284641464746224600F01F
:1001E00053F853465A46C01A914110D31146184647
:1001F000224600F03AF82D1A67EB01084F462246D6
:100200000120002100F031F817EB00094E41201EBB
:10021000A4F10104DFDC484631462A464346BDE8E6
:10022000F09F40EA01039B0703D009E008C9121FB1
:1002300008C0042AFAD203E011F8013B00F8013BA0
:10024000521EF9D27047D2B201E000F8012B491ECC
:10025000FBD270470022F6E710B513460A46044663
:100260001946FFF7F0FF204610BD202A04DB203A94
:1002700000FA02F1002070479140C2F1200320FAF9
:1002800003F3194390407047202A04DB203A21FAF7
:1002900002F00021704721FA02F3D040C2F120029F
:1002A0009140084319467047064C074D06E0E06848
:1002B00040F0010394E8070098471034AC42F6D3AD
:1002C000FFF766FFD4490008F449000870B58C18A0
:1002D00010F8015B15F0070301D110F8013B2A115A
:1002E00006D110F8012B03E010F8016B01F8016B47
:1002F0005B1EF9D12B0705D40023521E0DD401F843
:10030000013BFAE710F8013BCB1A921C03E013F80B
:10031000015B01F8015B521EF9D5A142D8D3002040
:1003200070BDFEE7704790F83510022903D0802198
:10033000416501207047052180F83510006801688B
:1003400021F00101016000207047000070B50446F3
:1003500000F0F2F80546601C02D00448007804441E
:1003600000F0EAF8401BA042FAD370BD88030020D9
:100370002DE9F84FDFF87CB100224FF001084FF073
:10038000030A4FF00F090BF1040E00BF0B6808FAC7
:1003900002F42340A3426ED14D68022D01D0122DEC
:1003A0000ED1D50800EB850CDCF820505607F70E6F
:1003B00009FA07F6B5430E69BE402E43CCF820601B
:1003C000066855000F790AFA05FC07F0030726EACC
:1003D0000C06AF40374307604E68012E05D0022E51
:1003E00003D0112E01D0122E0ED18668CF6826EAD6
:1003F0000C06AF40374387604668A6430C79C4F3C8
:100400000014944034434460C6688C6826EA0C06A5
:10041000AC403443C4604C68E40065D5364C256874
:1004200045F480452560246822F0030504F48044E7
:100430000094324C2E19D6F8084895072F0F09FA68
:1004400007F5AC432E4DA84201D1002524E02D4DE7
:10045000A84201D101251FE02B4DA84201D1022560
:100460001AE02A4DA84201D1032515E0284DA842E3
:1004700002D1042510E037E0264DA84201D1052520
:100480000AE0254DA84201D1062505E0234DA842EA
:1004900001D1072500E00825BD402543C6F80858CE
:1004A000DBF800405D464E689C43F60300D51C43D4
:1004B0002C60DEF8004075464E689C43B60300D5BC
:1004C0001C432C600B4D08352C684E689C43F6028B
:1004D00000D51C432C60074D0C352C684E689C439E
:1004E000B60200D51C432C60521C102AFFF44EAFFC
:1004F000BDE8F88F003C0140443802400030014024
:10050000000002400004024000080240000C0240CB
:10051000001002400014024000180240001C02407B
:10052000426931EA020200D10904816170470AB1CF
:10053000816170470904FBE701488068704700004B
:100540008803002070B58AB0040005D094F8B90281
:100550002568002618B107E001200AB070BD84F8B4
:10056000B862204600F028F8032084F8B902E86B4E
:10057000C00500D42661206802F0D2FE04F110010B
:1005800028220D466846FFF74CFE94E80F0002F063
:1005900071FE0121206802F06DFF2822294668467D
:1005A000FFF73FFE94E80F0002F0F8FE012084F808
:1005B000B9020020D1E7000010B586B0044614212E
:1005C0006846FFF747FE2068B0F1A04F27D11548D5
:1005D0000021026842F001020260006800F00100A0
:1005E00005904FF4C05000900220CDE90101032096
:1005F00003900A20049069460B48FFF7B9FE0948AA
:10060000001D016841F08001016006481430016856
:1006100041F480410160006800F48040059006B01C
:1006200010BD0000303802400000024002488168DE
:100630000278114481607047880300200B4810B590
:10064000016841F400710160016841F4806101605A
:10065000016841F480710160032000F06FF8002010
:1006600000F006F800F024F8002010BD003C024025
:1006700070B50D4D04464FF47A712878B1FBF0F057
:100680000A490968B1FBF0F000F00CFD48B9102CE4
:1006900007D200222146501E00F030F800206C6086
:1006A00070BD012070BD000088030020940300206D
:1006B0000A4808B5016841F480410160006800F40F
:1006C000804000900548001F016841F080510160A2
:1006D000006800F08050009008BD000044380240DF
:1006E000002809DB00F01F02012191404009800031
:1006F00000F1E020C0F8001170470000F0B40E4B8C
:100700001B680C46C3F30223C3F10705042D00D96F
:100710000425191D072901D2002300E0DB1E012654
:1007200006FA05F1491E214099409E40761E16406A
:100730003143F0BC02F0B6BE0CED00E0064900F01B
:10074000070208684FF6FF03184040EA0220034AF8
:1007500010430860704700000CED00E00000FA054F
:100760002DE9F0470E46050065D0DFF81481D8F872
:100770000000F7B200F00F00B04207D288F8007016
:10078000D8F8000000F00F00B04254D128683D4C6A
:10079000810712D5400703D5206840F4E05020605F
:1007A0002878000703D5206840F460402060206866
:1007B000A96820F0F000084320602878C0072DD0F9
:1007C000304968680839012812D0022813D003285C
:1007D00011D00968890700292DDA216821F0030169
:1007E00001432160FFF7A8FE814641F2883A0EE0FE
:1007F00009688903EFE709688901ECE7FFF79CFEC8
:10080000A0EB0901514502D90320BDE8F08720681B
:10081000696800F00C00B0EB810FEFD1D8F8001040
:10082000404601F00F01B14207D90770006800F09F
:100830000F00B04201D00120E7E72878400705D536
:100840002068E96820F4E050084320602878000719
:1008500006D52068296920F4604040EAC100206084
:1008600000F036F82168084AC1F30311515CC84012
:10087000064908600020FFF7FBFE0020C5E70000E6
:10088000003C024008380240BC49000894030020A4
:100890000448054900680968044AC1F38221515C93
:1008A000C84070479403002008380240CC49000833
:1008B0000448054900680968044AC1F34231515CA3
:1008C000C84070479403002008380240CC49000813
:1008D000154810B5006810F00C02144813D04110F0
:1008E000042A0FD0082A0ED10F4C241F2268236837
:1008F00002F03F025B0207D52068C0F38810A0FB1E
:10090000010106E0084610BD2168C1F38811A1FB72
:1009100000010023FFF754FC2168C1F30141491C89
:100920004900B0FBF1F010BD083802400024F4008B
:100930002DE9F84F050076D02878DFF8F8B2BE4CE4
:10094000C00749D0DBF800105846C1F381010129E6
:1009500008D00068C0F3810002280AD1201D006879
:10096000400206D52068800336D568680028E2D0AA
:1009700032E06868B0F5803F10D0B0F5A02F206855
:1009800010D020F480302060206820F48020206087
:100990006868A0B1FFF7D0FD06460CE0206840F47F
:1009A0008030F4E740F480202060F7E7FFF7C4FDD3
:1009B000801B642873D820688003F7D50CE0FFF70C
:1009C000BBFD064605E000BFFFF7B6FD801B6428AF
:1009D000F0D820688003F7D42878DFF86082800799
:1009E0004FF000093ED5DBF80010584611F00C0F0F
:1009F00009D00068C0F3810002280BD18D48001F88
:100A00000068400206D42068800715D5E8680128F0
:100A100009D111E0E868B8B10120C8F80000FFF77B
:100A20008BFD064605E002E1FFF786FD801B0228EC
:100A3000C0D820688007F7D52068296920F0F80021
:100A400040EAC10020600DE0C8F80090FFF774FD97
:100A5000064604E0FFF770FD801B02281FD82068BF
:100A60008007F7D42878000722D5724E7448696948
:100A70006C3671B101210160FFF75EFD074604E0AD
:100A8000FFF75AFDC01B022809D830688007F7D548
:100A90000EE0C0F80090FFF74FFD074605E083E049
:100AA000FFF74AFDC01B02287ED830688007F7D4C4
:100AB0002878400768D5DFF87CA100270AF1380ABA
:100AC000DAF80000C0000BD4DAF8001041F08051D1
:100AD000CAF80010DAF80000012700F080500090FA
:100AE000584E3068C00510D4306840F480703060D3
:100AF000FFF722FD009005E0FFF71EFD0099401A68
:100B0000022851D83068C005F6D54A4EA868683624
:100B100001280FD00528306810D020F00100306087
:100B2000306820F004003060A868B8B1FFF704FD19
:100B300000900FE0306840F00100F4E740F004005E
:100B40003060F7E7FFF7F8FC0099411A41F288306E
:100B5000814264D830688007F4D50EE0FFF7ECFCE2
:100B6000009007E0FFF7E8FC0099411A41F2883055
:100B7000814254D830688007F4D42FB1DAF80010DD
:100B800021F08051CAF80010A869C0B3DBF800104A
:100B9000C1F3810102294AD00228484607D0C8F88B
:100BA0006000FFF7C9FC00E039E005463AE047463F
:100BB000C8F86000FFF7C0FC064604E0FFF7BCFC85
:100BC000801B02282BD820688001F7D4D5E90701C3
:100BD0000843A96A1C4A490802EB01416A6A41EAD2
:100BE0008211084395F82C1040EA01611148001F5A
:100BF000016001203866FFF79FFC054605E014E020
:100C0000FFF79AFC401B022809D820688001F7D51D
:100C10000BE000BFFFF790FC401B022802D9032025
:100C2000BDE8F88F20688001F4D40020F8E70120A7
:100C3000F6E7000008380240003802400000474252
:100C4000800E4742007000400000FFFFFEB50446E2
:100C500003200D4684F83400606C032820D0B5F5DD
:100C6000805F1DD0B5F5006F05D045B1A06B40F099
:100C70000060A06309E0204601F0C9FE02E02046C2
:100C800001F09EFEA16B0143A163A06B012658B148
:100C9000216840F2FF50886384F834600120FEBD73
:100CA000A06B40F08050E4E7211DD4E905700EC927
:100CB0000095CDE90170206801F0DBFA84F834601A
:100CC0000020FEBDF0B5426E120E93090B70C2F308
:100CD00083034B7002F003028A70426E120CCA70DA
:100CE000B0F86420120A0A7190F864204A71826E8A
:100CF0004FF6FF73120E03EA0212CA80826ECB888F
:100D0000C2F3074243EA1213CB8002F00F020A72C9
:100D1000B0F86820C2F30722D3094B72C2F38013E4
:100D20008B72C2F34013CB72C2F300130B73002615
:100D30004E73446C4FF4007701236CB1012C43D007
:100D4000026840F2FF519163816B41F080518163F1
:100D500080F834300120F0BD9207120D0A6190F83E
:100D600068200C6944EA82020A61C26E0C69120EA4
:100D700044EA92140C61C2F3C2040C7502F007023B
:100D80004A75C26EC2F3074254098C75C2F38204DD
:100D9000CC759207520F0A76B0F86C20C2F3072484
:100DA0000A7E42EAD4120A760A69521C42650D7E16
:100DB000AD1CAA4042650D7A03FA05F585656D0AFA
:100DC0006A43C0E917271CE090F868209206920A4F
:100DD0000A61C26E0C69120E44EA02220A61C26EF6
:100DE0000C69C2F3074214430C61B0F86C20C2F3E3
:100DF00007240A69521C4FEA82224265C0E9167232
:100E00000766C4F3801201F8192F4FEA84624FEA93
:100E100052624A7010F86C2F4C7844EAD2144C702D
:100E200002F07F028A7042684FEA12624FEAD214DF
:100E3000CC70C2F341140C71C2F382044C714FEABE
:100E400082724FEA12728A7142688C79C2F3074249
:100E500044EA92148C71C2F34014CC710E7202F009
:100E600001024A728288C2F307224FEAD2148C72BE
:100E7000C2F38014CC72C2F340140C73C2F300149A
:100E80004C73C2F381048C7302F00302CA730079BD
:100E90004FEA500008744B744FF00000F0BD70B57D
:100EA000040004D094F83400002510B105E00120BE
:100EB00070BD2577204600F037F8032084F8340011
:100EC000204600F007F8A5632563012084F834006C
:100ED000002070BDFEB50025044676200095CDE9C2
:100EE00001502B462A462946206801F0C2F90D4ED2
:100EF00046F8A05F206801F0CEF901253560022098
:100F0000FFF724FA204601F00AFD20B9204601F03F
:100F100093FC002805D084F83450A16B0143A163F1
:100F20000120FEBD00802542F0B587B004461421A3
:100F30006846FFF78FF91D492068884233D11C4865
:100F40000024016841F400610160006800F4006061
:100F5000059017481438016841F0040101600168E8
:100F600001F004010591016841F008010160006889
:100F7000022500F0080005904FF4F850CDE9000577
:100F800002AA03260C2782E8D00069460948FFF729
:100F9000EFF90420CDE9000502AA694682E8D000F5
:100FA0000548FFF7E5F907B0F0BD0000002C01404F
:100FB0004438024000080240000C024070B50400B2
:100FC00005D00025A56294F8510010B106E001207B
:100FD00070BD84F85050204600F030F8022084F8AC
:100FE00051002068016821F040010160D4E901014D
:100FF0000843D4E903121143084361690843218B74
:1010000001F400710843E1690843216A0843A16AB9
:10101000084321680860A069042101EA1040616A60
:101020000843216848602068C16921F40061C161FA
:101030006565012084F85100002070BD10B586B0B0
:10104000044614216846FFF705F9134920688842D1
:1010500020D112480021026842F4805202600068E8
:1010600000F4805005900D481438026842F00202E6
:101070000260006800F00200059038200090022015
:10108000CDE901010320039005200490694604483E
:10109000FFF76EF906B010BD003001404438024041
:1010A0000004024010B5401EB0F1807F01D3012042
:1010B00010BD4FF0E02460610F21601702F0F2F9DB
:1010C0000020A06107202061002010BD70477047FC
:1010D00070B590F83C20012A19D0012400F83C4F4B
:1010E0000222427050F83C3C5A689D6822F070061B
:1010F0000A684968324325F0800529435A6050F850
:101100003C2C9160447000210170084670BD0220A3
:1011100070BD10B5040003D094F83D0010B107E095
:10112000012010BD002084F83C00204600F00CF89F
:10113000022084F83D00211D206801F00BFD0120F4
:1011400084F83D00002010BD08B51A4A01681A480D
:10115000914208D1016841F008010160006800F087
:101160000800009008BD154A91420ED1016841F077
:10117000800101600068002200F0800000901146AC
:101180002C20FFF7BBFA2C2010E00D4A9142E9D148
:10119000016841F4807101600068002200F48070F1
:1011A000009011462D20FFF7A9FA2D20BDE8084038
:1011B000FFF796BA000C004040380240001C004087
:1011C000002000400168CA6842F00102CA6000685D
:1011D000816801F00701062903D0016841F001018F
:1011E00001600020704770B5044690F83C0001286B
:1011F00017D0012584F83C50022084F83D00206877
:10120000826822F0770222F47F42826008685028C8
:1012100030D00DDC20284DD005DC98B310283BD110
:1012200048E0022070BD302844D0402834D139E055
:10123000602828D0702806D0B0F5805F2CD0B0F59B
:10124000005F29D10AE0CB68D1E90121206801F0D3
:10125000F2FC2068816841F0770109E0CB68D1E9B0
:101260000121206801F0E7FC2068816841F4804199
:10127000816011E0CA684968206801F0B1FD502121
:10128000206807E016E0CA684968206801F0B9FDE7
:101290006021206801F0D9FC84F83D50002084F8DA
:1012A0003C0070BDCA684968206801F099FD402182
:1012B0002068EFE7226801461046EBE72DE9F04190
:1012C0000D46040003D094F83D0018B108E0012059
:1012D000BDE8F081002084F83C00204600F03AF898
:1012E000022084F83D002068816844F2070291439F
:1012F0008160211D206801F02DFC226890689169B1
:10130000166A2B68AF69034340F20330814341EA18
:101310000721A868EF6908434FF6FC418843E96854
:1013200040EA0720014328692F6A000140EA07309C
:10133000084369686D6926F0AA0646EA051529433F
:1013400093602268906120680162012084F83D006A
:101350000020BDE770B586B0044614216846FEF74C
:1013600079FF21481F4E256800221F491038C024EC
:101370000223B54217D10D6845F002050D600968DA
:1013800001F002010591016841F00401016000686B
:101390000094CDE9013200F00400CDE90430694643
:1013A0000392124819E0124EB54218D10D6845F06B
:1013B00004050D60096801F004010591016841F020
:1013C0000201016000680094CDE9013200F00200E2
:1013D000CDE90430694603920648FEF7C9FF06B01E
:1013E00070BD000000040040403802400008024088
:1013F000000800400004024010B50446006891B1A6
:10140000042904D00122002101F008FC20680122F7
:101410005FF0040101F002FC2068016841F0010165
:101420000160002010BD01220021F3E7704770B574
:101430000446006801694FF00005C943890715D4C7
:10144000C168C943890711D4E91E016101202077D1
:10145000206880698007204602D0FFF7E7FF04E09C
:1014600000F0C0F8204600F053F9257720680169A4
:10147000C943490717D4C168C943490713D46FF05A
:1014800004010161022020772068806910F4407F08
:10149000204602D0FFF7CAFF04E000F0A3F8204680
:1014A00000F036F9257720680169C943090716D489
:1014B000C168C943090712D46FF008010161042013
:1014C00020772068C0698007204602D0FFF7AEFF72
:1014D00004E000F087F8204600F01AF9257720682C
:1014E0000169C943C90617D4C168C943C90613D4E1
:1014F0006FF010010161082020772068C06910F4A6
:10150000407F204602D0FFF791FF04E000F06AF828
:10151000204600F0FDF8257720680169C943C90716
:1015200008D1C168C943C90704D1891E0161204699
:1015300000F012F920680169C943090609D4C1689D
:10154000C943090605D46FF0800101612046FFF709
:10155000BDFD20680169C943490609D4C168C94372
:10156000490605D46FF040010161204600F026F9DC
:1015700020680169C94389060BD4C168C94389063B
:1015800007D46FF0200101612046BDE87040FFF7ED
:101590009EBD70BD10B586B0044614216846FEF7A6
:1015A00059FE2068B0F1804F15D10C480021026827
:1015B00042F001020260006800F001000590032083
:1015C00000900220CDE901010120CDE90310694618
:1015D0000348FEF7CDFE06B010BD000030380240D3
:1015E00000000240704770B5044690F83C000D467C
:1015F00001280DD0012684F83C60022084F83D00CB
:1016000042B1042A18D0082A2AD00C2A4DD139E038
:10161000022070BD206801F021FB2068816941F043
:10162000080181612068816921F0040181612068DD
:1016300081692A69114311E0206801F03FFB2068AD
:10164000816941F4006181612068816921F48061D0
:101650008161206881692A6941EA0221816124E06F
:10166000206801F061FB2068C16941F00801C16197
:101670002068C16921F00401C1612068C1692A693B
:10168000114311E0206801F083FB2068C16941F437
:101690000061C1612068C16921F48061C161206875
:1016A000C1692A6941EA0221C16184F83D600020D4
:1016B00084F83C0070BD10B5040003D094F83D00E0
:1016C00010B107E0012010BD002084F83C00204646
:1016D00000F00CF8022084F83D00211D206801F084
:1016E00039FA012084F83D00002010BD08B50068DB
:1016F000B0F1804F08D10548016841F00101016057
:10170000006800F00100009008BD00004038024071
:101710007047000010B504460068012201F07EFA0F
:101720000B492068884202D00A49884203D1416CA3
:1017300041F4004141642068816801F007010629F5
:1017400003D0016841F001010160002010BD0000DC
:10175000000001400004014070B505461448154CD6
:10176000854212D1E088401C80B2E08032280AD144
:10177000114E40213046FEF7D3FE80213046FEF761
:10178000CFFE0020E08001F0ADFE094840388542E0
:101790000DD1C0380068416A21610549C0390A6825
:1017A000526A62614FF6FF7242620868426270BD1F
:1017B000B405002068030020000002407047704715
:1017C00070B5026804461068D168536910F00F0FB5
:1017D00050D003F0010501F4907635435DD0C20787
:1017E00005D0CA0503D5E26B42F00102E26342076D
:1017F00005D5DA0703D0E26B42F00202E26382070A
:1018000005D5DA0703D0E26B42F00402E263020777
:1018100005D5DA0703D0E26B42F00802E263E26B1F
:10182000002A33D0800604D5880602D5204601F070
:1018300010FB20684069E16BC0F38010090700D4F9
:1018400028B3204601F0F7FA2068416949061AD505
:10185000416921F040014161606BA0B11B49016504
:10186000606BFEF760FD002810D0606B016DBDE875
:1018700070400847830610D58B060ED52046BDE87C
:10188000704001F0E6BA2046FFF799FF70BD204690
:10189000FFF795FF0020E06370BD030606D50B0639
:1018A00004D52046BDE8704001F074BC4006F3D575
:1018B0004806F1D5D168204621F04001D1602021B1
:1018C00084F8391000F0F4F870BD0000272E0008ED
:1018D00070B5040004D094F83900002510B106E07A
:1018E000012070BD84F83850204600F023F82420F1
:1018F00084F839002068C16821F40051C160204695
:1019000001F0F2FA2068016921F490410161206838
:10191000416921F02A0141612068C16841F4005108
:10192000C160E563202084F8390084F83A00002083
:1019300070BD000070B586B0044614216846FEF7FD
:1019400089FC274E2168274802220123032407250A
:10195000B1421FD1234914310E6846F010060E60C3
:10196000096801F010010591016841F00101016071
:101970000068694600F00100059060028DE83D00B6
:101980001948FEF7F5FC002211462520FEF7B6FEA9
:10199000252021E0154EB14220D1124910310E68A8
:1019A00046F400360E60096801F4003105910168C3
:1019B00041F0080101600068694600F008000590E8
:1019C00060208DE83D000A48FEF7D2FC0022114657
:1019D0002620FEF793FE2620FEF782FE06B070BD9D
:1019E0000010014030380240000002400044004036
:1019F000000C024070472DE9F843044690F8390086
:101A00001F4616460D46202850D1A5B19EB194F828
:101A1000380001284AD0012084F838004FF000082F
:101A2000C4F83C80212084F83900FEF785FDA684A7
:101A30008146E68426E00120BDE8F883E08C401E64
:101A4000E084A0684B46B0F5805F4FF000024FF095
:101A500080012046009703D001F0CDFBE8B90DE0EE
:101A600001F0C9FBC8B928882168C0F308004860A4
:101A7000206908B16D1C05E0AD1C03E0216815F874
:101A8000010B4860E08C0028D8D14B460022402151
:101A90002046009701F0AFFB08B10320CCE72020DF
:101AA00084F8390084F838800020C5E70220C3E7B5
:101AB0007047FEE72DE9F04107461C4615460E46E5
:101AC0002A2000F003F9781C00F0E0F8681C00F010
:101AD000DDF82B2000F0FAF806F11A0000F0D6F835
:101AE00004F11A0000F0D2F8BDE8F0412C2000F01B
:101AF000EDB870B5064600214F239F220846FFF738
:101B0000D9FF00240025304600F0C0F86D1C502D90
:101B1000F9D3641CA02CF5D370BD10B514460B4648
:101B20000246FFF7C7FF2046BDE8104000F0AEB800
:101B30002DE9F05F1C468846814690282CD808463F
:101B4000B8F1400F28D8203AD6B200F10F0309F1BE
:101B5000070241464846FFF7ADFF1E48002C4FF0F4
:101B600000041BD04FEA000B04EB061100251BF804
:101B7000017008EB040AF80705D0514609EB05008F
:101B80000A9AFFF7CAFF6D1C7F08EDB2082DF2D349
:101B9000641CE4B2102CE7D3BDE8F09FDFF8388076
:101BA0004FEA000904EB0611002519F80170F80747
:101BB00001D00A9801E0D8F8000000F067F86D1C29
:101BC0007F08EDB2082DF2D3641CE4B2102CE9D3E7
:101BD000E2E700004C370008000000202DE9F84F34
:101BE00000261D4691468A4607463446DDF8288081
:101BF00025E0281B401EC1B20A2001F07BFDB9FB85
:101C0000F0F00A21B0FBF1F201FB120026B9691EC7
:101C10008C4201DA40B101263030C2B207EBC40079
:101C20000023CDF8008005E0002307EBC40020224C
:101C3000CDF800805146FFF77BFF641CE4B2AC4254
:101C4000D7D3BDE8F88F2DE9F8431F4616460D4659
:101C500004464FF4784813E0902C01D90024103545
:101C6000402D04D9002425464046FFF742FF009747
:101C70003278002329462046FFF75AFF0834761CA5
:101C800030780028E8D1BDE8F883000010B504469C
:101C9000012208210548FEF74AFCC4F3072000F0A2
:101CA00023F8E0B2BDE8104000F01EB80008024082
:101CB00010B50446012208210348FEF738FC2046EF
:101CC000BDE8104000F010B80008024010B504460E
:101CD000002208210348FEF72AFC2046BDE81040F8
:101CE00000F002B80008024070B5144E054600220C
:101CF00010213046FEF71BFC002400220121304653
:101D0000FEF715FC280601D5012200E00022022181
:101D10003046FEF70CFC012211463046FEF707FC68
:101D20006806641C050EE4B2082CE6D33046BDE814
:101D3000704001221021FEF7FABB000000080240AB
:101D400010B5934C002204212046FEF7F0FBC8207A
:101D5000FEF7FCFA012204212046FEF7E8FBC8202A
:101D6000FEF7F4FA012220212046FEF7E0FB78205E
:101D7000FEF7ECFA1120FFF7A9FF7820FEF7E6FA4C
:101D8000B120FFF7A3FF0520FFF792FF3C20FFF7EC
:101D90008FFF3C20FFF78CFFB220FFF797FF052055
:101DA000FFF786FF3C20FFF783FF3C20FFF780FF13
:101DB000B320FFF78BFF0520FFF77AFF3C20FFF7EA
:101DC00077FF3C20FFF774FF0520FFF771FF3C20F1
:101DD000FFF76EFF3C20FFF76BFFB420FFF776FFA5
:101DE0000320FFF765FFC020FFF770FFAB20FFF770
:101DF0005FFF0B20FFF75CFF0420FFF759FFC120B6
:101E0000FFF764FFC520FFF753FFC220FFF75EFF17
:101E10000D20FFF74DFF0020FFF74AFFC320FFF71B
:101E200055FF8D20FFF744FF6A20FFF741FFC420D4
:101E3000FFF74CFF8D20FFF73BFFEE20FFF738FF49
:101E4000C520FFF743FF0F20FFF732FFE020FFF729
:101E50003DFF0720FFF72CFF0E20FFF729FF08208A
:101E6000FFF726FF0720FFF723FF1020FFF720FFD3
:101E70000720FFF71DFF0220FFF71AFF0720FFF7DB
:101E800017FF0920FFF714FF0F20FFF711FF252090
:101E9000FFF70EFF3620FFF70BFF0020FFF708FFCC
:101EA0000820FFF705FF0420FFF702FF1020FFF7CF
:101EB000FFFEE120FFF70AFF0A20FFF7F9FE0D20E1
:101EC000FFF7F6FE0820FFF7F3FE0720FFF7F0FE0E
:101ED0000F20FFF7EDFE0720FFF7EAFE0220FFF7D5
:101EE000E7FE0720FFF7E4FE0920FFF7E1FE0F20E1
:101EF000FFF7DEFE2520FFF7DBFE3520FFF7D8FEDB
:101F00000020FFF7D5FE0920FFF7D2FE0420FFF7DF
:101F1000CFFE1020FFF7CCFEFC20FFF7D7FE80207D
:101F2000FFF7C6FE3A20FFF7D1FE0520FFF7C0FEFF
:101F30003620FFF7CBFE7820FFF7BAFE2120FFF70F
:101F4000C5FE2920FFF7C2FE2A20FFF7BFFE0020B2
:101F5000FFF7AEFE1A20FFF7ABFE0020FFF7A8FE4A
:101F60006920FFF7A5FE2B20FFF7B0FE0020FFF74A
:101F70009FFE0120FFF79CFE0020FFF799FEA020A6
:101F8000FFF796FEBDE810402C20FFF79FBE000033
:101F9000000802402DE9F04186B014216846FEF7A2
:101FA00059F935480024016841F0100101600168C9
:101FB00001F010010591016841F004010160016820
:101FC00001F004010591016841F0800101600168A0
:101FD00001F080010591016841F001010160016893
:101FE00001F001010591016841F002010160016801
:101FF00001F002010591016841F0080101600068EB
:102000001E4E00F00800059000223F213046FEF7EA
:102010008EFA1B4F0022FC213846FEF788FADFF8C3
:102020006480002201214046FEF781FA1820CDE9A4
:102030000004694614480294FEF79AF93F20009084
:102040000125CDE90154694630460394FEF790F925
:10205000FC200090CDE90154694638460394FEF710
:1020600087F90095CDE90154694640460394FEF78F
:102070007FF906B0BDE8F081303802400008024028
:102080000000024000040240001002400B480A49D0
:102090004FF4007201604FF4827141600021816051
:1020A000C1600161C0E90512C161016241628162E2
:1020B0000A21C162FEF782BF003001401C040020EB
:1020C00010B58AB0002407941C2168460894FEF7D6
:1020D000C1F813484FF08041C0E9001442F23311B7
:1020E000C0E9024104618461FFF7E5FA079407A99A
:1020F0000B480894FEF7ECFF6020CDE90004029441
:102100000022694606480494FFF76DFA04226946E6
:102110000348FFF768FA0248FFF73CFA0AB010BD1F
:102120007404002010B58CB024216846FEF792F8A4
:1021300000241348099411490A94C0E900144FF689
:10214000FF71C0E90241046184610320CDE900040C
:102150000120CDE902040F210491CDE90540CDE92C
:10216000074169460648FFF7A9F8099409A90448F8
:102170000A94FEF7ADFF0CB010BD00000004004053
:10218000B404002010B58CB024216846FEF762F834
:1021900000241348099411490A94C0E900144FF629
:1021A000FF71C0E90241046184610320CDE90004AC
:1021B0000120CDE902040F210491CDE90540CDE9CC
:1021C000074169460648FFF779F8099409A90448C8
:1021D0000A94FEF77DFF0CB010BD0000000800401F
:1021E000F404002010B586B0002411480094019436
:1021F0000294039404940D49059401605321C0E9AD
:1022000001140121C0E903148461FEF782FF4FF439
:102210008050009069460648FEF7E5FF049404A943
:1022200003480594FEF754FF06B010BD000C0040B3
:1022300034050020FEE7704770470A6842624A682A
:102240008262D1E902231A43D1E904310B43C16A06
:102250001A4321F0F7011143C16200207047006862
:1022600000F00300704708B508441430009000687F
:1022700008BD70B50DF1100C11439CE870002343AC
:10228000194329434268314347F6FF639A430A439F
:102290004260002070BD0321016000207047D0F82B
:1022A000800070470A688260D1E901231A43D1E9AE
:1022B00003310B43C1681A436FF30B011143C16033
:1022C0000020704710B586B004463720CDE90010D5
:1022D00040200290002003904FF4806004906946F3
:1022E0002046FFF7DFFF41F288323721204600F019
:1022F00021F906B010BD000010B504460A4886B0AA
:1023000001432920CDE900104020029000200390D5
:102310004FF48060049069462046FFF7C3FF2046D3
:1023200000F0BEF906B010BD0000108010B586B0F8
:1023300004461020CDE900104020029000200390B8
:102340004FF48060049069462046FFF7ABFF41F2EE
:1023500088321021204600F0EDF806B010BD10B50F
:1023600086B004460620CDE90010402002900020EF
:1023700003904FF48060049069462046FFF792FF77
:1023800041F288320621204600F0D4F806B010BD94
:1023900030B585B000240546009401944FF4806068
:1023A0000294CDE9034069462846FFF77BFF0B48BE
:1023B0004FF4FA510068B0FBF1F041F28831484324
:1023C000401E03D24FF0004005B030BD696B0906D6
:1023D000F6D540F2FF50A8632046F5E794030020AD
:1023E00070B585B004464FF4D570009008204026A3
:1023F000CDE901060025C001CDE90350694620461C
:10240000FFF750FF0F484FF4FA510068B0FBF1F0AE
:1024100041F288314843401E02D24FF000450DE0A2
:10242000616B11F0450FF6D0606B400702D5A663D3
:10243000042503E0606B400600D5A66305B028467E
:1024400070BD00009403002010B586B0044607203C
:10245000CDE9002040200290002003904FF48060DE
:10246000049069462046FFF71DFF41F2883207219C
:10247000204600F05FF806B010BD10B586B00446E7
:1024800000210220CDE90010C020CDE902014FF467
:102490008060049069462046FFF704FF204600F064
:1024A000D7F806B010BD10B586B004460920CDE9B6
:1024B0000010C0200290002003904FF48060049030
:1024C00069462046FFF7EEFE204600F0C1F806B050
:1024D00010BD10B586B0044600213320CDE90010B0
:1024E0004020CDE902010001049069462046FFF733
:1024F000D9FE41F288323321204600F01BF806B0A5
:1025000010BD30B585B00C46054600210320CDE94D
:1025100000104020CDE902010001049069462846E0
:10252000FFF7C0FE22460321284600F0D9F805B087
:1025300030BD0000444B10B51B684FF4FA54B3FB98
:10254000F4F353435B1E02D24FF0004010BD426BC8
:1025500012F0450FF6D0426B520703D50421816378
:10256000084610BD426BD20702D00121816303E00F
:102570000269D2B28A4201D0012010BD40F2FF515F
:1025800081630021FFF76FFE3049084201D100202E
:1025900010BD002802DA4FF0007010BD410001D5D7
:1025A000402010BD810001D5802010BDC10002D5A2
:1025B0004FF4807010BD010102D54FF4007010BDC2
:1025C000410102D54FF4806010BDC10102D54FF426
:1025D000006010BD010202D54FF4805010BD4102D1
:1025E00002D54FF4005010BD810202D54FF4804057
:1025F00010BDC10202D54FF4004010BD410302D509
:102600004FF4003010BD810302D54FF4802010BD7F
:10261000C10302D54FF4002010BD010402D54FF4D0
:10262000801010BD410402D54FF4001010BD81048C
:1026300002D54FF4800010BD000702D54FF4000012
:1026400010BD4FF4803010BD9403002008E0FFFD62
:1026500012494FF4FA520968B1FBF2F141F28832A3
:102660005143491E02D24FF000407047426B12F0B6
:10267000450FF6D0416B490703D504218163084615
:102680007047416BC90703D0012181630846704739
:1026900040F2FF5181630020704700009403002046
:1026A0000E494FF4FA520968B1FBF2F141F2883257
:1026B0005143491E02D24FF000407047426B12F066
:1026C000450FF6D0416B490703D5042181630846C5
:1026D000704740F2FF51816300207047940300204F
:1026E0001F4B10B51B684FF4FA54B3FBF4F341F2DF
:1026F000883463435B1E02D24FF0004010BD446B30
:1027000014F0450FF6D0436B5B0703D504218163BA
:10271000084610BD436BDB0702D00121816303E053
:102720000369DBB28B4201D0012010BD40F2FF51A2
:1027300081630021FFF797FD10F4604F04D041043E
:1027400006D54FF4005010BD000C1080002010BDC5
:10275000000402D54FF4805010BD4FF4803010BDFE
:10276000940300202DE9F04F89B00E460446FDF792
:10277000E3FE00258346009501952F460821206839
:10278000FFF7D4FD002834D1B4F8500001042068CC
:10279000FFF798FD00282CD1401E4FF00808CDE926
:1027A000020830204FF00209CDE904090120CDE9EB
:1027B000067002A92068FFF740FD2068FFF789FE38
:1027C000002816D1EA4640F22A472068416B394278
:1027D00012D1416B890204D5FFF761FD4AF825004B
:1027E0006D1CFDF7A9FEA0EB0B00401CEDD14FF0D6
:1027F000004009B0BDE8F08F416B090703D5C0F870
:1028000038800820F5E7416B890703D5C0F8389078
:102810000220EEE7416B890603D52021816308463B
:10282000E7E740F2FF518163009800BA70600198B9
:1028300000BA30600020DCE710B590B004460120FB
:10284000ADF838002068FFF70AFD002864D0606CFE
:10285000032842D02068FFF710FE00285AD100213B
:102860002068FFF700FD606704212068FFF7FBFC8C
:10287000A06708212068FFF7F6FCE0670C212068BC
:10288000FFF7F1FCC4F88000606C032825D00EA986
:102890002068FFF736FE00283CD1606C03281CD06E
:1028A000BDF83800206501042068FFF7FCFD002812
:1028B00030D100212068FFF7D6FC60660421206833
:1028C000FFF7D1FCA06608212068FFF7CCFCE0668A
:1028D0000C212068FFF7C7FC206704212068FFF760
:1028E000C2FC000DE06403A92046FEF7EBF9B4F842
:1028F0005000002302042068FFF7A6FD002809D13C
:1029000004F1100007C88DE8070094E80F00FFF7F6
:10291000B0FC002010B010BD4FF08060FAE72DE948
:10292000F8430025044600950068FFF731FD0028B4
:102930001AD12068FFF754FD4FF080784FF6FF76EC
:10294000D8B14FF08057A5640098411C0091B04267
:102950001AD000212068FFF7B5FC20B900212068BB
:10296000FFF7CAFC10B13846BDE8F88300212068A3
:10297000FFF779FCC00FE7D01FE00127A76400989C
:10298000411C0091B04201D14046EDE70021206892
:10299000FFF798FC0028E7D14FF080412068FFF74F
:1029A000ABFC0028E0D100212068FFF75CFCC10FE0
:1029B000E5D0400001D5676400E065640020D3E7FE
:1029C0001CB5044600200090019000212068FFF70C
:1029D0004AFC800102D54FF400601CBD69462046C8
:1029E000FFF7C0FE0028F8D10198C0030CD5B4F859
:1029F000500001042068FFF765FC0028EDD100219C
:102A00002068FFF7ACFC1CBD4FF080601CBD1CB5FE
:102A1000044600200090019000212068FFF723FC6D
:102A2000800102D54FF400601CBD69462046FFF7C7
:102A300099FE0028F8D1019840030CD5B4F8500055
:102A400001042068FFF73EFC0028EDD10221206838
:102A5000FFF785FC1CBD4FF080601CBD7047FDF783
:102A6000E5BD000030B593B030216846FDF7F2FBBC
:102A700014210CA8FDF7EEFB19480025016841F070
:102A800080510160006800F0805011901548016885
:102A900041F4804101600068022400F480401190FC
:102AA00001200090000401908001CDE9064004203F
:102AB0000890A820CDE9090407200B906846FDF78F
:102AC00037FF0CA90F2081E831004FF4A0500F9080
:102AD000E002109005210CA8FDF742FE13B030BDB6
:102AE00040380240007000401048016841F4700115
:102AF00001600F48016841F0010101600C4A0021AA
:102B00000832116002680B4B1A400260031D0A4A2A
:102B10001A60026822F48022026005480C300160CD
:102B200002495806803908607047000088ED00E0CF
:102B300000380240FFFFF6FE103000240148FEF787
:102B400076BC0000B40500200148FEF770BC000010
:102B500074050020F0B50268254C264D264E274FFF
:102B6000274B4FF0804CA04209D0604507D0A842C7
:102B700005D0B04203D0B84201D0984204D122F02F
:102B8000700E4A6842EA0E02A0421BD0604519D07E
:102B9000A84217D0B04215D0B84213D0984211D0F5
:102BA000184DA8420ED0184DA8420BD0174DA84280
:102BB00008D0174DA84205D0164DA84202D0164D98
:102BC000A84203D122F44075CA682A434D6922F015
:102BD00080022A4302608A68C2620A688262A04256
:102BE00001D0984201D10969016301214161F0BD21
:102BF000000001400004004000080040000C0040BC
:102C000000040140004001400044014000480140F0
:102C100000180040001C00400020004010B501F0EA
:102C20001F030121046A99408C430462016A9A409F
:102C30001143016210BD10B5846842EA032224F4F6
:102C40007F440A432243826010BD826822F07002F2
:102C50000A4342F00701816070470000F0B5026A44
:102C600022F001020262036A42688469124E24F073
:102C700073050C682C4323F002058B682B430D4D24
:102C8000A84201D0B04205D123F00807CB683B43EE
:102C900023F00403A84201D0B04205D14D6922F4CB
:102CA000407215438A692A434260846149684163DE
:102CB0000362F0BD0000014000040140F0B5026A6B
:102CC00022F010020262026A436884690D6824F4EB
:102CD000E64444EA05248D6822F0200242EA051207
:102CE0000F4D104EA84201D0B04206D1CF6822F05D
:102CF000800242EA071222F04002A84201D0B0420C
:102D000007D14D6923F4406343EA85038D6943EAA3
:102D1000850343608461496881630262F0BD0000FD
:102D20000000014000040140F0B5026A22F4807204
:102D30000262026A4368C46922F4007224F07305D7
:102D40000C68124E2C438D6842EA05220E4DA842B3
:102D500001D0B04206D1CF6822F4006242EA0722D5
:102D600022F48062A84201D0B04207D14D6923F419
:102D7000405343EA05138D6943EA05134360C46178
:102D80004968C1630262F0BD0000014000040140D7
:102D900030B5026A22F480520262046A4268C36952
:102DA0000D6823F4E64343EA05238D6824F40054B8
:102DB00044EA0534084DA84202D0084DA84204D187
:102DC0004D6922F4804242EA85124260C36149683B
:102DD0000164046230BD00000000014000040140B5
:102DE00010B5036A046A24F001040462846924F0C3
:102DF000F00444EA021423F00A020A4384610262E6
:102E000010BD10B5036A23F0100303628369046ADE
:102E100023F4704343EA023224F0A00343EA011191
:102E20008261016210BD10B5806B0021C185C18433
:102E3000FEF7C5FC10BD0168CA6822F49072CA6032
:102E400001684A6922F001024A61202180F83A10A3
:102E5000704710B590F83A10222901D0022010BD19
:102E60008168B1F5805F11D00169002901681FD028
:102E7000496801F07F03816A4A1C82620B70C18D30
:102E8000491E0904090CC18518D02BE00269816A2A
:102E9000002A0268526805D0D2B20A80816A491CB1
:102EA0008162ECE7C2F308020A80816A891CF7E7B5
:102EB0004A68816A4B1C83620A70E0E70168CA684D
:102EC00022F02002CA600168CA6822F48072CA60D7
:102ED00001684A6922F001024A61202180F83A1013
:102EE000FEF788FD002010BD2DE9F0410446006882
:102EF0000169E26821F44051114301612169A06830
:102F0000E26908436169114322680843D16849F2C4
:102F10000C6399430143D16020684169A26921F49F
:102F2000407111434161E2696425B2F5004F974851
:102F3000974922684FF032083FD08A4201D082423E
:102F40007CD1FDF7B5FC00EBC00101EB001061681E
:102F50008900B0FBF1F6FDF7ABFC00EBC00101EB23
:102F6000001061688900B0FBF1F0B0FBF5F06FF084
:102F70001801484306EB800108EB0110B0FBF5F0A7
:102F800000F0F006FDF794FC00EBC00101EB00102F
:102F900061688900B0FBF1F0B0FBF5F006EB0016BC
:102FA000FDF786FC00EBC00101EB001061688900B1
:102FB000B0FBF1F7FDF77CFCD2E08A4201D08242FF
:102FC0003DD1FDF775FC00EBC00101EB001061681D
:102FD0004900B0FBF1F0B0FBF5F00601FDF768FC2D
:102FE00000EBC00101EB001061684900B0FBF1F794
:102FF000FDF75EFC00EBC00101EB001061684900C9
:10300000B0FBF1F0B0FBF5F06FF01801484307EBAF
:10301000800108EBC100B0FBF5F000F0F80006EB12
:103020004006FDF745FC00EBC00101EB00106168B4
:103030004900B0FBF1F7FDF73BFC3CE055E0FDF744
:1030400027FC00EBC00101EB001061684900B0FBF8
:10305000F1F0B0FBF5F00601FDF71AFC00EBC00142
:1030600001EB001061684900B0FBF1F7FDF710FCBF
:1030700000EBC00101EB001061684900B0FBF1F00A
:10308000B0FBF5F06FF01801484307EB800108EB47
:10309000C100B0FBF5F000F0F80006EB4006FDF7CC
:1030A000F7FB00EBC00101EB001061684900B0FBC9
:1030B000F1F7FDF7EDFB00EBC00101EB00106168DB
:1030C0004900B0FBF1F0B0FBF5F06FF01801484398
:1030D00007EB800108EBC100B0FBF5F000F0070042
:1030E000216830448860BDE8F081FDF7D1FB00EB3A
:1030F000C00101EB001061688900B0FBF1F6FDF73B
:10310000C7FB00EBC00101EB001061688900B0FB58
:10311000F1F0B0FBF5F06FF01801484306EB8001C9
:1031200008EB0110B0FBF5F000F0F006FDF7B0FB86
:1031300000EBC00101EB001061688900B0FBF1F009
:10314000B0FBF5F006EB0016FDF7A2FB00EBC001AB
:1031500001EB001061688900B0FBF1F7FDF798FB07
:1031600000EBC00101EB001061688900B0FBF1F0D9
:10317000B0FBF5F06FF01801484307EB800108EB56
:103180000110B0FBF5F000F00F00A9E700140140BA
:103190000010014090F83910212901D00220704719
:1031A0008168B1F5805F016A0BD04A1C0262026837
:1031B00009785160C18C491E0904090CC1840ED0E4
:1031C00017E009880268C1F308015160016900290C
:1031D000016A02D0491C0162ECE7891CFBE7016827
:1031E000CA6822F08002CA600068C16841F04001EC
:1031F000C160002070472DE9F041984617460E4601
:103200000446069D1DE0681C1BD02DB1FDF794F906
:10321000A0EB0800A84214D92068C16821F4D0713D
:10322000C1602068416921F001014161202084F8DA
:10323000390084F83A00002084F838000320BDE803
:10324000F0812068006836EA000004D00020B8420F
:10325000D9D00020F3E70120F9E700000148FEF78C
:10326000AFBA0000F40500200148FEF7A9BA00003B
:103270003406002070B5044606990A9E049D0D98F8
:10328000012916D0E06840F04000E060204600F0E0
:103290002BF8A16B1EB321F48031A163012D07D15E
:1032A000A16841F00601A160A16841F02001A16080
:1032B00070BDA16B21F48031A163E168094A11401E
:1032C000E160E16821F44011E160012803D1E06888
:1032D00040F48010E060204600F006F8DEE741F49C
:1032E0008031DAE7BFFFBDFF01220C4902E0521C2A
:1032F0008A420BD80369002BF9DA026942F0010215
:103300000261012204E0521C8A4201D90320704765
:103310000369DB07F7D1002070470000400D030070
:10332000816821F0010181600020704708B5D0F864
:10333000402422F02E020092D20405D4012909D1A2
:10334000009941F4805103E021B9009921F48051A2
:10335000C0F84014002008BD002110220261054A77
:10336000491C914201D9032070470369DB06F7D459
:1033700000207047400D03000022202343EA811102
:1033800001610549521C8A4201D903207047036933
:103390009B06F7D400207047400D03002DE9F04153
:1033A0000025DDF8188017460446C0F8005E806BE3
:1033B00040F40010A063A06B20F40020A063A06B79
:1033C00020F48020A063E06BC00501D5032B04D05E
:1033D000D4F8000420F0040103E0D4F8000440F025
:1033E00004012046C4F800141021FFF7C5FF204651
:1033F000FFF7B2FF0020461E07E000BF04EB4011BC
:10340000C1F80865C1F80C55401C8742F6D8012167
:103410002046FFF78BFFC820FCF798FFA561666187
:10342000E06BC00506D54FF4007060620C48A062E6
:103430000C4804E0802060620B48A0620B48C4F88E
:103440000001B8F1000F03D1A06940F01000A061A5
:10345000A06907490843A0610020BDE8F081000091
:10346000000200010003E00080006000E000400076
:10347000080020A310B5C26822F0C042C260012932
:1034800002D029B1012010BDC16841F0005102E015
:10349000C16841F08041C1603220FCF757FF002035
:1034A00010BDFEE70907090E002804DB00F1E0204B
:1034B00080F80014704700F00F0000F1E02080F861
:1034C000141D704702E008C8121F08C1002AFAD173
:1034D00070477047002001E001C1121F002AFBD194
:1034E000704700000A4800690A4AC043C1B25378D5
:1034F00021EA03001070517002074FF0010101D55D
:10350000054A1170C00601D50448017070470000DB
:1035100000100240640300206903002068030020BB
:1035200008B5FDF78BF8FFF79DFAFEF733FDFEF7C0
:10353000F9FD674865494FF4E13500240160C0E9B1
:1035400001540C26C460C0E904468461C461FEF7DE
:10355000BFF9FEF7B5FDFEF715FEFEF743FE5C482A
:103560005C49403840F247370160C0E9017440F2DD
:10357000E738C0E903848461FDF7CBFD574856491D
:10358000C0E900148460C460046144618461FDF793
:1035900086FC4FF400615148FDF758FBFEF776FDBD
:1035A0004B484FF0A041803001600821816001212B
:1035B000C0E903140221C0E90614FCF7C3FF444824
:1035C000474940300160C0E90154C460C0E9044685
:1035D0008461C461FEF77CF93D484249803801604E
:1035E000C0E90174C0E903848461FDF792FD3848A5
:1035F0004038FDF7E7FD0520FCF7A8FE3448803889
:10360000FDF7E0FDFEF79CFB4FF6FF752846FEF741
:1036100070FA35482B460522046034492C48FEF7E1
:10362000EAF9324D183DA988688800F06BF800204F
:10363000FEF75FFA4FF4784605234EF667720021D5
:103640001C200096FEF7CAFA3C212948FDF7D4FE5B
:1036500027483C214030FDF7CFFE334605F10802F4
:1036600000210520FEF7EFFA334605F10B02122187
:103670000520FEF7E8FA1F260096052300211C20EE
:103680002A69FEF7ABFA0096052312211C206A690D
:10369000FEF7A4FA3220FCF759FE2878012808D159
:1036A00005234EF6EE6224211C200096FEF796FAC2
:1036B0002C7068780128DFD105234AF6AA2224213C
:1036C0001C200096FEF78AFA6C70D5E700100140C6
:1036D000F405002000200040002C01409803002049
:1036E00000440040001C0040000000208003002037
:1036F000B40400200246012000E05043491EC9B234
:10370000FBD2704770B58EB0602500240095CDE9DE
:1037100001040E46224669460B480494FDF763FFF8
:1037200000210948FDF7F6FFCDE90864079504225A
:1037300007A905480B94FDF756FF04210248FDF741
:10374000E9FF0EB070BD000074040020000000000E
:103750000000000000000000000000000000000861
:1037600008080808080800001818000000486C2421
:103770001200000000000000000000000000002413
:1037800024247F1212127F12121200000000081C63
:103790002A2A0A0C1828282A2A1C080800000022B5
:1037A000251515152A585454542200000000000C09
:1037B0001212120A76252911916E000000060604E5
:1037C0000300000000000000000000000040201086
:1037D000100808080808081010204000000204081B
:1037E000081010101010100808040200000000005B
:1037F00008086B1C1C6B080800000000000000009B
:10380000080808087F0808080800000000000000F9
:103810000000000000000000060604030000000095
:1038200000000000FE00000000000000000000009A
:1038300000000000000000000606000000008040BC
:1038400040202010100808040402020000000018A4
:103850002442424242424242241800000000000832
:103860000E08080808080808083E00000000003C90
:103870004242422020100804427E00000000003C2A
:103880004242201820404042221C0000000000203C
:103890003028242422227E20207800000000007E90
:1038A0000202021A26404042221C0000000000389A
:1038B0002402021A26424242241800000000007E20
:1038C0002222101008080808080800000000003C28
:1038D0004242422418244242423C000000000018A8
:1038E0002442424264584040241C00000000000072
:1038F0000000181800000000181800000000000068
:10390000000000080000000000080804000000405B
:1039100020100804020408102040000000000000ED
:1039200000007F0000007F00000000000000000297
:103930000408102040201008040200000000003C91
:103940004242464020101000181800000000001CE1
:10395000225A555555552D42221C000000000008E2
:1039600008181414243C224242E700000000001F03
:103970002222221E22424242221F00000000007C1E
:103980004242010101010142221C00000000001F0F
:103990002242424242424242221F00000000003FB7
:1039A0004212121E12120242423F00000000003F6B
:1039B0004212121E12120202020700000000003C16
:1039C0002222010101712122221C0000000000E7D7
:1039D000424242427E42424242E700000000003E34
:1039E0000808080808080808083E00000000007CD5
:1039F00010101010101010101010110F0000007790
:103A000022120A0E0A12122222770000000000077A
:103A10000202020202020202427F0000000000775E
:103A2000363636362A2A2A2A2A6B0000000000E39E
:103A300046464A4A52525262624700000000001C49
:103A40002241414141414141221C00000000003F10
:103A5000424242423E020202020700000000001CF5
:103A60002241414141414D53321C60000000003F62
:103A70004242423E1212222242C700000000007C55
:103A80004242020418204042423E00000000007FF3
:103A90004908080808080808081C0000000000E79A
:103AA0004242424242424242423C0000000000E7A1
:103AB0004242222424141418080800000000006B5D
:103AC000494949495555362222220000000000E7A5
:103AD000422424181818242442E70000000000772C
:103AE0002222141408080808081C00000000007EA8
:103AF0002120101008040442423F0000007808080A
:103B000008080808080808080808780000000202E9
:103B1000040408080810102020204040001E101047
:103B2000101010101010101010101E00003844005B
:103B30000000000000000000000000000000000085
:103B40000000000000000000000000FF0006080068
:103B50000000000000000000000000000000000065
:103B60000000003C4278444242FC00000000000398
:103B70000202021A26424242261A000000000000F9
:103B800000000038440202024438000000000060D7
:103B9000404040784442424264D8000000000000A7
:103BA0000000003C427E0202423C0000000000F0A7
:103BB0008808087E08080808083E00000000000089
:103BC0000000007C22221C023C42423C0000000318
:103BD0000202023A4642424242E700000000000C64
:103BE0000C00000E08080808083E00000000003025
:103BF00030000038202020202020221E000000035A
:103C000002020272120A1612227700000000000E51
:103C10000808080808080808083E0000000000001E
:103C20000000007F9292929292B700000000000084
:103C30000000003B4642424242E700000000000014
:103C40000000003C42424242423C000000000000B2
:103C50000000001B26424242221E02070000000014
:103C60000000007844424242447840E000000000F6
:103C7000000000774C040404041F00000000000052
:103C80000000007C42023C40423E00000000000078
:103C90000008083E0808080808300000000000007E
:103CA000000000634242424262DC0000000000006B
:103CB000000000E74224241408080000000000006F
:103CC000000000EB49495555222200000000000089
:103CD0000000007624181818246E00000000000070
:103CE000000000E742242414180808070000000020
:103CF0000000007E22100808447E000000C0202042
:103D000020202010202020202020C0001010101083
:103D100010101010101010101010101000060808CD
:103D20000808081008080808080806000C32C20035
:103D3000000000000000000000000000FFFFFFFF87
:103D4000FFFFFFFFFFFFFFFFFFFFFFFFFFFFFFFF83
:103D5000FFFFFFFFFFFFFFFFFFFFBEF7FFFFDEFFDD
:103D600038C6928C8E6B6E6B107C96AD3CE7FFFF75
:103D7000FFFFFFFFFFFFFFFFFFFFFFFFFFFFFFFF53
:103D8000FFFFFFFFFFFFFFFFFFFFFFFFFFFFFFFF43
:103D9000FFFFFFFFFFFFFFFFFFFFFFFFFFFFFFFF33
:103DA000FFFFFFFFFFFFFFFFFFFF5DEF159D4F636D
:103DB0006C420A328829461925194521E8318E6B53
:103DC00038C6FFFFFFFFFFFFFFFFFFFFFFFFFFFF03
:103DD000FFFFFFFFFFFFFFFFFFFFFFFFFFFFFFFFF3
:103DE000FFFFFFFFFFFFFFFFFFFFFFFFFFFFFFFFE3
:103DF000FFFFFFFFFFFFFFFF36A51053104B51538E
:103E00000F4B6C3AE93167212519E410A3086200D1
:103E10008308CB529AD6FFFFFFFFFFFFFFFFFFFF94
:103E2000FFFFFFFFFFFFFFFFFFFFFFFFFFFFFFFFA2
:103E3000FFFFFFFFFFFFFFFFFFFFFFFFFFFFFFFF92
:103E4000FFFFFFFF3CE77063B363B87CF56311438A
:103E50004D32EA2988212619051905190411041182
:103E6000E4108300A308728CFFFFFFFFFFFFFFFF3A
:103E7000FFFFFFFFFFFFFFFFFFFFFFFFFFFFFFFF52
:103E8000FFFFFFFFFFFFFFFFFFFFFFFFFFFFFFFF42
:103E9000FFFFDBDE4B3AF042356C544BB1322E2A39
:103EA000EB21A9216719051904110411041104114A
:103EB00004110519E4104200AF73FFFFFFFFFFFF7D
:103EC000FFFFFFFFFFFFFFFFFFFFFFFFFFFFFFFF02
:103ED000FFFFFFFFFFFFFFFFFFFFFFFFFFFFFFFFF2
:103EE0005DEF09324C32104B8F324F2A2E2ACC19FB
:103EF000891989214719051904110411C410C41026
:103F0000041104110411E41042003184FFFFFFFF8B
:103F1000FFFFFFFFFFFFFFFFFFFFFFFFFFFFFFFFB1
:103F2000FFFFFFFFFFFFFFFFFFFFFFFFFFFFFFFFA1
:103F3000EC5247194C320B2AEC21EC210C22915BFC
:103F4000EE4A061126190419E410E410A729662187
:103F5000A308051904110411E4108200F7BDFFFF46
:103F6000FFFFFFFFFFFFFFFFFFFFFFFFFFFFFFFF61
:103F7000FFFFFFFFFFFFFFFFFFFFFFFFFFFF35A575
:103F80008308882188218921AA218A216B42718C8A
:103F9000FFFF728C83080411C4082942FBDE5DEF29
:103FA000EC5A83080411041104118308E831DFFF7F
:103FB000FFFFFFFFFFFFFFFFFFFFFFFFFFFFFFFF11
:103FC000FFFFFFFFFFFFFFFFFFFFFFFFBEF7C73150
:103FD000C4102519261947194719A8298A52284AB1
:103FE00055ADFFFFE831A30805194D6B4D6BFFFF81
:103FF0007DEF4521C410041104110411620076AD57
:10400000FFFFFFFFFFFFFFFFFFFFFFFFFFFFFFFFC0
:10401000FFFFFFFFFFFFFFFFFFFFFFFF96B56200FF
:104020000411041905110519C4088B4AB6B55DEFD2
:10403000F7BDFFFF8E6B62002942AA5A0842FFFFBC
:10404000FFFFCC528308041104110411A308AD52E0
:10405000FFFFFFFFFFFFFFFFFFFFFFFFFFFFFFFF70
:10406000FFFF1CE7FFFFFFFFFFFFFFFF4E63620044
:10407000041104110411E41062008E63FFFFFFFFBE
:10408000FFFFFFFFCF730100F39C2C6396B5FFFF8A
:10409000FFFF2D5B8300041104110411E41067215C
:1040A0003DEFFFFFFFFFFFFFFFFFFFFFF8BDB7B5CD
:1040B0009EEFCB52B394FFFFFFFFDFFFE831A30871
:1040C0000411041104110411A3084942FFF7FFF77A
:1040D000FFFFFFFF6A4A01007284FFFFFFFFFFF747
:1040E000DFEF093AA30804110411041104110511AA
:1040F00018BEFFFFFFFFFFFFFFFFFFFFF07B620027
:10410000E831C731410035A5FFFF5DEF4621C410FE
:104110000411041104110411E410A308769DFFF7A3
:10412000FFFFB7ADA308A308C7319EE7FFF7FFF76E
:1041300076A5A308E410041104110411051105115A
:1041400035A5FFFFFFFFFFFFFFFFFFFFDBDEA72916
:104150008300C410C410C4101CE79EEF0511E410C6
:1041600004110411041104110419C408E510D16BE1
:10417000D16BC5086400A50843002B32779DB3843A
:104180002519C4100411041104110411251926095C
:10419000359DFFFFFFFFFFFFFFFFFFFFFFFFAF7337
:1041A00062000419051982000D5B8E9B62100511D7
:1041B000041104110419E41085000511C439815A51
:1041C000407B229C43AC03A4839B82728249C21829
:1041D000A400C500E410041904110519471967115A
:1041E000EC5ABEFFFFFFFFFFFFFFFFFFDFFFDBDE3D
:1041F000C410E41004110511A41801C08388E40060
:1042000005190419C5084421438323D542FEE4FE61
:1042100027FF07FFA4FE64FE03FEA3FDE2FC42ECC1
:1042200083B32462E510C40804192619A81987214C
:104230000090D3BCFFFFFFFFFFFFFFFFDFFFFFFF8B
:10424000107C420005190511832801D044F8A348C9
:10425000E400C508445A02EDE2FD02FE66FE74FF6A
:10426000B8FF73FFE7F6A6F645F6A4F5C3FC62FCBB
:10427000C2FCC2FCE3CBC449061188198701A49093
:1042800001F8EC9AFFFFFFFFFFFFFFFFFFFFFFFFBB
:10429000BEF7E83183000509824001C023F885F0AC
:1042A000A348A400445A02FD23CCC2DC04FE28FE2D
:1042B00048F646F624F6E4F564FDE3FC62FCC2FC35
:1042C00002E402DCE2FCA47A48016701C47824F825
:1042D00002F884B07DE7FFFFFFFFFFFFFFFFFFFF56
:1042E000FFFFDBDE2519A300C43802E022D844F822
:1042F000A6F8A4786300432183728339829B21F559
:1043000061FD22FDE2FCA2FC42FC42FC42FC22AB2D
:104310008341C392045226012519A49844F823F836
:1043200002F8A4D09EEFFFFFFFFFFFFFFFFFFFFF9C
:10433000FFFFFFFF9AD68729A50043B822F823E0A4
:1043400065F8E8F807C983484200A30084006329A0
:10435000A27A62B3A2CB62D302BB828A8339A40061
:10436000E500E500E508C46064D844F824F823F8C3
:1043700002F88388DBC6FFFFFFFFFFFFFFFFFFFFA1
:10438000FFFFFFFFFFFF3DE7505B083123E843F8E5
:1043900044F065F809F9ABF989D10689A3484218B8
:1043A0000200420061008200620062008300A320DC
:1043B000C450A58885D865F844F844F823F823F854
:1043C00003D08210C7295DEFFFFFFFFFFFFFFFFF54
:1043D000FFFFFFFFFFFFFFFFFFFF6C32A53802D892
:1043E00023F865F866F8A7F84AF90CFA4DFA4CEA92
:1043F0000BD2A9B968B147A927B107B907D1E7E836
:10440000C7F8A7F865F865F844F823F803F802D070
:10441000A3280509C408EC5AFFFFFFFFFFFFFFFFB9
:10442000FFFFFFFFFFFFFFFFFBDE0519C400A741F1
:10443000E6C003F886F8A7F887F886F8C7F829F9E0
:104440008AF9ABF9ABF98BF96AF929F908F9C7F8D8
:10445000A6F886F865F864F823F802F006B1252975
:10446000E400E41025192519149DFFFFFFFFFFFF4D
:10447000FFFFFFFFFFFFFFFF96AD6200820835954B
:10448000BACE8BA244D025F887F8A7F8C7F8A7F8CA
:1044900087F886F886F886F887F8A7F8A7F8A6F8C8
:1044A00085F865F864F824F064B80D93BBB6CF6363
:1044B00083080411E4106621493A5DEFFFFFFFFF16
:1044C000FFFFFFFFFFFFFFFFD3944200E410BBCECE
:1044D000FFFFBEE776B5CCAA07C145E045F846F830
:1044E00066F886F886F886F886F865F845F865F87F
:1044F00065E844D043A8018882903CD7FFEF5595EA
:1045000083080411041105194619B394FFFFFFFF36
:10451000FFFFFFFFFFFFFFFFB394410086215DDF38
:10452000FFFFFFFFFFFFDFE77AC6D3B44EB32AC217
:1045300068D1E6E0A6E8A5E8A5E8E6D888C906A916
:1045400022A802A800A000C800D8F7E5FFE7F8AD50
:10455000C410E4100411E41005118B4AFFFFFFFFA3
:10456000FFFFFFFFFFFFFFFF55A54100A7295DDF0C
:10457000FFF7FFFFFFFFFFFFFFFFFFFFFFEF7DDF05
:10458000DBCE59CEF8CDD7CDF7C579CEFBBEABA2E9
:1045900003F045F842D043E800F072D4FFDF39AEB3
:1045A000E410E4100411E41005118729FFFFFFFF58
:1045B000FFFFFFFFFFFFFFFF59CE830846211CD7F7
:1045C000FFF7FFFFFFFFFFFFFFFFFFFFFFFFFFFF03
:1045D000FFFFFFFFFFFFFFFFFFFFFFFFFFEF8BBAB4
:1045E00004F845F862E044F000F88EDBFFDFF8A540
:1045F000C410E410E4100411E4102519FFFFFFFFBC
:10460000FFFFFFFFFFFFFFFFBEF78729830839B6D3
:10461000FFF7DFF7FFFFFFFFFFFFFFFFFFFFFFFFDA
:10462000FFFFFFFFFFFFFFFFFFFFFFFFBEE74ABAED
:1046300003F845F864F844F800F86EE3FFD7F48C0B
:1046400083080411E410E410E4100519FFFFFFFFD4
:10465000FFFFFFFFFFFFFFFFFFFFEF73000072840C
:10466000FFEFBEEFDFFFFFFFFFFFFFFFFFFFFFFFDB
:10467000FFFFFFFFFFFFFFFFFFFFFFFFDFE78BBA3B
:1046800003F845F845F823F800F8D3D4FFD74E5B7C
:104690002100293A55A58308C4102519FFFFFFFF03
:1046A000FFFFFFFFFFFFFFFFFFFFFBDEA308E83177
:1046B0009EDF9EE7BFEFFFFFFFFFFFFFFFFFFFFF54
:1046C000FFFFFFFFFFFFFFFFFFFFFFFFFFF751BCF3
:1046D00002E003F803F043E0ECC27ECFFCBE4621CB
:1046E0002100D394FFFF518400008729FFFFFFFFC3
:1046F000FFFFFFFFFFFFFFFFFFFFFFFF51840000F1
:10470000F48CFFEF9EE7BFEFDFFFFFFFFFFFFFFF30
:10471000FFFFFFFFFFFFFFFFFFFFFFFFFFFF3DDF8B
:1047200055BD52BC72BCB7B55DC7FFDFF06B000072
:10473000093ABFF7FFFFFFFF149D55A5FFFFFFFFDD
:10474000FFFFFFFFFFFFFFFFFFFFFFFFFFFFAC4A81
:10475000A408BBBEDFE77EE7BEEFDFF7DFFFFFFFAA
:10476000FFFFFFFFFFFFFFFFFFFFFFFFDFFFDFF7A1
:10477000FFEFDFDFBFD79ED7DFDFD8A58308261185
:10478000DBD6FFFFFFFFFFFFFFFFFFFFFFFFFFFF86
:10479000FFFFFFFFFFFFFFFFFFFFFFFF79EE8BDC57
:1047A0002131A9213DCFBFDF7EDF9EE7BEEFBFEF06
:1047B000DFF7DFF7DFF7DFF7DFF7BFEFBEEF9EE7EB
:1047C0007EDF5ED75ED7DFDF9AB626194208EDA3FB
:1047D000BFFFFFFFFFFFFFFFFFFFFFFFFFFFFFFF29
:1047E000FFFFFFFFFFFFFFFFFFFF74DDC0DB00FEE9
:1047F00042EE024289217BB6DFDF7ED77EDF7EDF9D
:104800009EE79EE79EE79EE79EE77EDF7EDF5DD721
:104810005DD79EDFFFE7F8A50711E31802C560FD2D
:10482000E6D3DBEEFFFFFFFFFFFFFFFFFFFFFFFF12
:10483000FFFFFFFFFFFFFFFF9EF784BAC1FC42FEB0
:1048400082FEA2FE8183452174745EC7DFDF7ED7BE
:104850005ED75DD75ED75ED75DD75DD75ED79EDF6B
:10486000FFE73DC7F1638408425226E629FF86FE32
:10487000E0F36AC3FFFFFFFFFFFFFFFFFFFFFFFF44
:10488000FFFFFFFFFFFFFFFF18DEC1D2A2FD22FEE8
:1048900042FE42FE62FEE2D4416A494253743BA6A4
:1048A0003EC7BFD7BFD7BFD7BFDFBFD73EC71AA648
:1048B000F263A729824122B462FE83FEAAFE0FFFA3
:1048C00067FD63BA3CEFFFFFFFFFFFFFFFFFFFFF46
:1048D000FFFFFFFFFFFFFFFF9AE680D221FDC2FD31
:1048E000E2F5C2F582F582FD62FD61DC219B846AFE
:1048F000E96A2C63AF6311746E632C63895A0452A6
:10490000817AC2CBE2FC62FD82FDC2FDC2FDE4FD04
:1049100024FD62CA1CE7FFFFFFFFFFFFFFFFFFFF51
:10492000FFFFFFFFFFFFFFFFFFFFB1CC81D2C0F30E
:10493000C1FC02FD02FDE2FCC2FCC2FC81FC80FB6A
:10494000C0C9A48135AD59CE719C218100DAA1FB8B
:1049500082FCA2FC82FCA2FC02FD22FDE2FC00FC27
:1049600060DA90CCFFFFFFFFFFFFFFFFFFFFFFFFBD
:10497000FFFFFFFFFFFFFFFFFFFFFFFF59DE0DC43B
:1049800006CBE4D203DB03DBE3DAC3D2A4C209B370
:10499000D2BC9EF7FFFFFFFFFFFFFBE60EB4A6BAF7
:1049A00083D2E3E202EB22EB22E303DBE4D26AC32D
:1049B000B6D5FFFFFFFFFFFFFFFFFFFF0000000076
:1049C00000000000010203040607080900000000BF
:1049D00001020304F44900080000002098030000CD
:1049E000CC020008AC4B000898030020A00900008E
:1049F000D4340008D12A8004FA0104080D1A10806A
:104A0000010CF0FFFF0F308001040419246A070C29
:104A100009124809100401131A011914FFFF011AA1
:104A200003082904E90C3381812A0304261CFCFFB6
:104A3000FF3F1A400B5AC0282AC00C49041BFFFF35
:104A40004C22411A0468230E711B07815A14010776
:104A500060100B010E1898011C04E001181927F1D1
:104A60001A08C4231F304A0C046809100C30FE3F9A
:104A70000C30041069041BC00C281E0D3030060ECB
:104A8000049C0C3010044B188604101208060D30DC
:104A90000C860D3006EE0F3002FC0D30015B0CF081
:104AA00040193C2A0F081A109ED1299019CB4908A9
:104AB000890417E0FFFF0360C009130409161C599D
:104AC000181A010429441A08045A100419F8130189
:104AD00038041780FF1F2603C0FFFF071A80042930
:104AE0003D326032181A0C135A030419A41C8001B9
:104AF00008045E1CFCFFFF3F100928041AFC043266
:104B0000E062405A80026DFC1F841002290C691873
:104B10004DF80F080804128023FF7F290C490E2D41
:104B20008410A22045280FFE3F0220F22702200217
:104B300020FA2F2221022809122912290A2E0220E6
:104B40001AC95E9908165080408040195213FE1F02
:104B5000120812042C02800162697829021AA0A5A9
:104B600018161008B8080F0908090808BF0808092E
:104B70001C092C080A78CA1179012A04023CC87F52
:104B80003F08180BA83F18210C110B12080A0E66DB
:104B90000A8A11646025A00FA00F134C4DB3524D2B
:0C4BA0004554494D32320182101324F4B8
:040000050800018965
:00000001FF
