:020000040800F2
:10000000C00800209D0100080B1A000843130008D7
:10001000091A0008FF020008012200080000000081
:100020000000000000000000000000000F1A00089F
:1000300001030008000000000D1A0008111A000852
:10004000B7010008B7010008B7010008B7010008B0
:10005000B7010008B7010008B7010008B7010008A0
:10006000B7010008B7010008B7010008B701000890
:10007000B7010008B7010008B7010008B701000880
:10008000B7010008B7010008B7010008B701000870
:10009000B7010008B7010008B7010008B701000860
:1000A000B7010008B7010008B7010008B701000850
:1000B000B7010008B7010008B7010008B701000840
:1000C000B7010008B7010008B7010008B701000830
:1000D000B7010008F5210008B7010008B7010008C2
:1000E000B7010008B7010008B7010008B701000810
:1000F000B7010008B7010008B7010008B701000800
:10010000B7010008B7010008B7010008B7010008EF
:10011000B7010008B7010008B7010008B7010008DF
:10012000B7010008B7010008B7010008B7010008CF
:10013000B7010008B7010008B7010008B7010008BF
:10014000B7010008B7010008B7010008B7010008AF
:10015000B7010008B7010008B7010008B70100089F
:10016000B7010008B7010008B7010008B70100088F
:10017000B7010008B7010008B7010008000000003F
:10018000B7010008B7010008DFF80CD000F07AF8DA
:100190000048004741220008C00800200648804768
:1001A00006480047FEE7FEE7FEE7FEE7FEE7FEE75C
:1001B000FEE7FEE7FEE7FEE7991A0008890100085E
:1001C0002DE9F05F0546002092469B46884606468C
:1001D000814640241BE0284641464746224600F01F
:1001E00041F853465A46C01A914110D31146184659
:1001F000224600F028F82D1A67EB01084F462246E8
:100200000120002100F01FF817EB00094E41201ECD
:10021000A4F10104DFDC484631462A464346BDE8E6
:10022000F09FD2B201E000F8012B491EFBD27047CB
:100230000022F6E710B513460A4604461946FFF7B2
:10024000F0FF204610BD202A04DB203A00FA02F11C
:10025000002070479140C2F1200320FA03F31943B4
:1002600090407047202A04DB203A21FA02F0002156
:10027000704721FA02F3D040C2F1200291400843B6
:1002800019467047064C074D06E0E06840F0010350
:1002900094E8070098471034AC42F6D3FFF778FF94
:1002A000103600083036000870B58C1810F8015B65
:1002B00015F0070301D110F8013B2A1106D110F8FF
:1002C000012B03E010F8016B01F8016B5B1EF9D103
:1002D0002B0705D40023521E0DD401F8013BFAE789
:1002E00010F8013BCB1A921C03E013F8015B01F8F4
:1002F000015B521EF9D5A142D8D3002070BDFEE7A4
:10030000704790F83510022903D080214165012003
:100310007047052180F835100068016821F001015F
:10032000016000207047000070B5044600F010F92D
:100330000546601C02D004480078044400F008F927
:10034000401BA042FAD370BD7003002070B54FF679
:10035000F575094E281A84B230684462304600F0C0
:1003600071FC306801E0416A8CB2AC42FBD3BDE85D
:100370007040014800F078BC400400202DE9F84F9F
:10038000DFF87CB100224FF001084FF0030A4FF074
:100390000F090BF1040E00BF0B6808FA02F42340AA
:1003A000A3426ED14D68022D01D0122D0ED1D50879
:1003B00000EB850CDCF820505607F70E09FA07F61B
:1003C000B5430E69BE402E43CCF820600668550048
:1003D0000F790AFA05FC07F0030726EA0C06AF407E
:1003E000374307604E68012E05D0022E03D0112E30
:1003F00001D0122E0ED18668CF6826EA0C06AF40D7
:10040000374387604668A6430C79C4F300149440D0
:1004100034434460C6688C6826EA0C06AC4034431A
:10042000C4604C68E40065D5364C256845F48045C9
:100430002560246822F0030504F480440094324CC3
:100440002E19D6F8084895072F0F09FA07F5AC437F
:100450002E4DA84201D1002524E02D4DA84201D106
:1004600001251FE02B4DA84201D102251AE02A4D9B
:10047000A84201D1032515E0284DA84202D1042548
:1004800010E037E0264DA84201D105250AE0254DB0
:10049000A84201D1062505E0234DA84201D1072538
:1004A00000E00825BD402543C6F80858DBF80040A9
:1004B0005D464E689C43F60300D51C432C60DEF875
:1004C000004075464E689C43B60300D51C432C6023
:1004D0000B4D08352C684E689C43F60200D51C4332
:1004E0002C60074D0C352C684E689C43B60200D535
:1004F0001C432C60521C102AFFF44EAFBDE8F88F4D
:10050000003C0140443802400030014000000240FD
:100510000004024000080240000C024000100240AB
:100520000014024000180240001C0240006908400C
:1005300000D001207047426931EA020200D109046B
:10054000816170470AB1816170470904FBE70000CF
:1005500001488068704700007003002002488168ED
:100560000278114481607047700300200B4810B579
:10057000016841F400710160016841F4806101602B
:10058000016841F480710160032000F06FF80020E1
:1005900000F006F800F024F8002010BD003C0240F6
:1005A00070B50D4D04464FF47A712878B1FBF0F028
:1005B0000A490968B1FBF0F000F0E0FA48B9102CE4
:1005C00007D200222146501E00F030F800206C6057
:1005D00070BD012070BD0000700300207C0300206E
:1005E0000A4808B5016841F480410160006800F4E0
:1005F000804000900548001F016841F08051016073
:10060000006800F08050009008BD000044380240AF
:10061000002809DB00F01F02012191404009800001
:1006200000F1E020C0F8001170470000F0B40E4B5C
:100630001B680C46C3F30223C3F10705042D00D940
:100640000425191D072901D2002300E0DB1E012625
:1006500006FA05F1491E214099409E40761E16403B
:100660003143F0BC01F0CDBD0CED00E0064900F0D7
:10067000070208684FF6FF03184040EA0220034AC9
:1006800010430860704700000CED00E00000FA0520
:100690002DE9F0470E46050065D0DFF81481D8F843
:1006A0000000F7B200F00F00B04207D288F80070E7
:1006B000D8F8000000F00F00B04254D128683D4C3B
:1006C000810712D5400703D5206840F4E050206030
:1006D0002878000703D5206840F460402060206837
:1006E000A96820F0F000084320602878C0072DD0CA
:1006F000304968680839012812D0022813D003282D
:1007000011D00968890700292DDA216821F0030139
:1007100001432160FFF71CFF814641F2883A0EE059
:1007200009688903EFE709688901ECE7FFF710FF23
:10073000A0EB0901514502D90320BDE8F0872068EC
:10074000696800F00C00B0EB810FEFD1D8F8001011
:10075000404601F00F01B14207D90770006800F070
:100760000F00B04201D00120E7E72878400705D507
:100770002068E96820F4E0500843206028780007EA
:1007800006D52068296920F4604040EAC100206055
:1007900000F036F82168084AC1F30311515CC840E3
:1007A000064908600020FFF7FBFE0020C5E70000B7
:1007B000003C024008380240F83500087C03002065
:1007C0000448054900680968044AC1F38221515C64
:1007D000C84070477C0300200838024008360008F3
:1007E0000448054900680968044AC1F34231515C74
:1007F000C84070477C0300200838024008360008D3
:10080000154810B5006810F00C02144813D04110C0
:10081000042A0FD0082A0ED10F4C241F2268236807
:1008200002F03F025B0207D52068C0F38810A0FBEE
:10083000010106E0084610BD2168C1F38811A1FB43
:1008400000010023FFF7BCFC2168C1F30141491CF2
:100850004900B0FBF1F010BD083802400024F4005C
:100860002DE9F84F050076D02878DFF8F8B2BE4CB5
:10087000C00749D0DBF800105846C1F381010129B7
:1008800008D00068C0F3810002280AD1201D00684A
:10089000400206D52068800336D568680028E2D07B
:1008A00032E06868B0F5803F10D0B0F5A02F206826
:1008B00010D020F480302060206820F48020206058
:1008C0006868A0B1FFF744FE06460CE0206840F4DB
:1008D0008030F4E740F480202060F7E7FFF738FE2F
:1008E000801B642873D820688003F7D50CE0FFF7DD
:1008F0002FFE064605E000BFFFF72AFE801B642896
:10090000F0D820688003F7D42878DFF86082800769
:100910004FF000093ED5DBF80010584611F00C0FDF
:1009200009D00068C0F3810002280BD18D48001F58
:100930000068400206D42068800715D5E8680128C1
:1009400009D111E0E868B8B10120C8F80000FFF74C
:10095000FFFD064605E002E1FFF7FAFD801B0228D5
:10096000C0D820688007F7D52068296920F0F800F2
:1009700040EAC10020600DE0C8F80090FFF7E8FDF4
:10098000064604E0FFF7E4FD801B02281FD820681C
:100990008007F7D42878000722D5724E7448696919
:1009A0006C3671B101210160FFF7D2FD074604E00A
:1009B000FFF7CEFDC01B022809D830688007F7D5A5
:1009C0000EE0C0F80090FFF7C3FD074605E083E0A6
:1009D000FFF7BEFDC01B02287ED830688007F7D421
:1009E0002878400768D5DFF87CA100270AF1380A8B
:1009F000DAF80000C0000BD4DAF8001041F08051A2
:100A0000CAF80010DAF80000012700F080500090CA
:100A1000584E3068C00510D4306840F480703060A3
:100A2000FFF796FD009005E0FFF792FD0099401A50
:100A3000022851D83068C005F6D54A4EA8686836F5
:100A400001280FD00528306810D020F00100306058
:100A5000306820F004003060A868B8B1FFF778FD76
:100A600000900FE0306840F00100F4E740F004002F
:100A70003060F7E7FFF76CFD0099411A41F28830CA
:100A8000814264D830688007F4D50EE0FFF760FD3E
:100A9000009007E0FFF75CFD0099411A41F28830B1
:100AA000814254D830688007F4D42FB1DAF80010AE
:100AB00021F08051CAF80010A869C0B3DBF800101B
:100AC000C1F3810102294AD00228484607D0C8F85C
:100AD0006000FFF73DFD00E039E005463AE047469B
:100AE000C8F86000FFF734FD064604E0FFF730FD6C
:100AF000801B02282BD820688001F7D4D5E9070194
:100B00000843A96A1C4A490802EB01416A6A41EAA2
:100B10008211084395F82C1040EA01611148001F2A
:100B2000016001203866FFF713FD054605E014E07B
:100B3000FFF70EFD401B022809D820688001F7D579
:100B40000BE000BFFFF704FD401B022802D9032081
:100B5000BDE8F88F20688001F4D40020F8E7012078
:100B6000F6E7000008380240003802400000474223
:100B7000800E4742007000400000FFFF10B5401E8D
:100B8000B0F1807F01D3012010BD4FF0E0246061FF
:100B90000F21601701F035FB0020A06107202061C4
:100BA000002010BD70B590F83C20012A19D0012416
:100BB00000F83C4F0222427050F83C3C5A689D6855
:100BC00022F070060A684968324325F080052943FF
:100BD0005A6050F83C2C9160447000210170084626
:100BE00070BD022070BD10B5040003D094F83D0024
:100BF00010B107E0012010BD002084F83C00204621
:100C000000F00CF8022084F83D00211D206800F05F
:100C10006DFF012084F83D00002010BD08B500687C
:100C20000649884208D10648016841F00801016080
:100C3000006800F00800009008BD0000000C0040B3
:100C400040380240022180F83D1001688A6802F0B5
:100C50000702062A03D00A6842F001020A60012155
:100C600080F83D1000207047022180F83D10016897
:100C70000A6A41F211131A4207D10A6A9B101A42FA
:100C800003D10A6822F001020A60012180F83D10B8
:100C90000020704770B5044690F83C00012817D03A
:100CA000012584F83C50022084F83D0020688268C9
:100CB00022F0770222F47F4282600868502830D008
:100CC0000DDC20284DD005DC98B310283BD148E03E
:100CD000022070BD302844D0402834D139E060284B
:100CE00028D0702806D0B0F5805F2CD0B0F5005F1A
:100CF00029D10AE0CB68D1E90121206800F067FF23
:100D00002068816841F0770109E0CB68D1E90121D1
:100D1000206800F05CFF2068816841F480418160B8
:100D200011E0CA684968206801F026F8502120685F
:100D300007E016E0CA684968206801F02EF86021D3
:100D4000206800F04EFF84F83D50002084F83C00FD
:100D500070BDCA684968206801F00EF8402120681B
:100D6000EFE7226801461046EBE72DE9F0410D461A
:100D7000040003D094F83D0018B108E00120BDE85C
:100D8000F081002084F83C00204600F03BF802206F
:100D900084F83D002068816844F207029143816035
:100DA000211D206800F0A2FE226890689169166AF1
:100DB0002B68AF69034340F20330814341EA0721C6
:100DC000A868EF6908434FF6FC418843E96840EAA8
:100DD0000720014328692F6A000140EA07300843D1
:100DE00069686D6926F0AA0646EA051529439360ED
:100DF0002268906120680162012084F83D00002093
:100E0000BDE7000070B586B0044614216846FFF7C0
:100E10000FFA21481F4E256800221F491038C024B0
:100E20000223B54217D10D6845F002050D6009682F
:100E300001F002010591016841F0040101600068C0
:100E40000094CDE9013200F00400CDE90430694698
:100E50000392124819E0124EB54218D10D6845F0C0
:100E600004050D60096801F004010591016841F075
:100E70000201016000680094CDE9013200F0020037
:100E8000CDE90430694603920648FFF777FA06B0C9
:100E900070BD0000000400404038024000080240DD
:100EA000000800400004024070B586B004461421DA
:100EB0006846FFF7BDF92068B0F1804F27D115488B
:100EC0000024016841F001010160016801F00101A5
:100ED0000591016841F0020101600068022500F0FF
:100EE0000200059020200090CDE901540126CDE9B3
:100EF000034669460848FFF741FA08200090CDE90B
:100F00000154CDE9034669460448FFF737FA06B0B5
:100F100070BD000030380240000002400004024072
:100F200070B5044690F83C000D4601280DD001260E
:100F300084F83C60022084F83D0042B1042A18D0B5
:100F4000082A2AD00C2A4DD139E0022070BD206831
:100F500000F050FE2068816941F00801816120683D
:100F6000816921F004018161206881692A69114346
:100F700011E0206800F06EFE2068816941F4006194
:100F800081612068816921F48061816120688169C3
:100F90002A6941EA0221816124E0206800F090FE84
:100FA0002068C16941F00801C1612068C16921F070
:100FB0000401C1612068C1692A69114311E02068F8
:100FC00000F0B2FE2068C16941F40061C16120688F
:100FD000C16921F48061C1612068C1692A6941EA5F
:100FE0000221C16184F83D60002084F83C0070BD9E
:100FF00010B5040003D094F83D0010B107E00120C3
:1010000010BD002084F83C00204600F00DF80220BE
:1010100084F83D00211D206800F068FD012084F85F
:101020003D00002010BD000008B50068B0F1804F01
:1010300008D10548016841F001010160006800F035
:101040000100009008BD00004038024010B5044681
:101050000068012200F0AEFD0B492068884202D0F2
:101060000A49884203D1416C41F40041416420683F
:10107000816801F00701062903D0016841F00101F0
:101080000160002010BD000000000140000401408C
:101090007047000070B5026804461068D168536953
:1010A00010F00F0F50D003F0010501F49076354396
:1010B0005DD0C20705D0CA0503D5E26B42F001023C
:1010C000E263420705D5DA0703D0E26B42F0020281
:1010D000E263820705D5DA0703D0E26B42F004022F
:1010E000E263020705D5DA0703D0E26B42F008029B
:1010F000E263E26B002A33D0800604D5880602D56D
:10110000204600F072FE20684069E16BC0F3801059
:10111000090700D428B3204600F059FE2068416931
:1011200049061AD5416921F040014161606BA0B1C7
:101130001B490165606BFFF7E4F8002810D0606B75
:10114000016DBDE870400847830610D58B060ED5AB
:101150002046BDE8704000F048BE2046FFF798FFEB
:1011600070BD2046FFF794FF0020E06370BD0306CA
:1011700006D50B0604D52046BDE8704000F0D6BF6A
:101180004006F3D54806F1D5D168204621F040014C
:10119000D160202184F8391000F0D2F870BD000031
:1011A000BF1D000870B5040004D094F83900002574
:1011B00010B106E0012070BD84F83850204600F0E0
:1011C00023F8242084F839002068C16821F40051F4
:1011D000C160204600F054FE2068016921F490416E
:1011E00001612068416921F02A0141612068C168DC
:1011F00041F40051C160E563202084F8390084F88F
:101200003A00002070BD000010B586B004461421DD
:101210006846FFF70DF818492068884229D1174819
:10122000016841F010010160006800F010000590B5
:1012300012481438016841F00101016000686946F4
:1012400000F0010005904FF4C06000900220019072
:101250000120029003200390072004900848FFF724
:101260008DF8002211462520FFF7E0F92520FFF731
:10127000CFF906B010BD0000001001404438024014
:101280000000024070472DE9F843044690F8390009
:101290001F4616460D46202850D1A5B19EB194F8A0
:1012A000380001284AD0012084F838004FF00008A7
:1012B000C4F83C80212084F83900FFF749F9A6845E
:1012C0008146E68426E00120BDE8F883E08C401EDC
:1012D000E084A0684B46B0F5805F4FF000024FF00D
:1012E00080012046009703D000F051FFE8B90DE0DF
:1012F00000F04DFFC8B928882168C0F30800486095
:10130000206908B16D1C05E0AD1C03E0216815F8EB
:10131000010B4860E08C0028D8D14B4600224021C8
:101320002046009700F033FF08B10320CCE72020CF
:1013300084F8390084F838800020C5E70220C3E72C
:101340007047FEE72DE9F04107461C4615460E465C
:101350002A2000F0E1F8781C00F0BEF8681C00F0CC
:10136000BBF82B2000F0D8F806F11A0000F0B4F812
:1013700004F11A0000F0B0F8BDE8F0412C2000F0B4
:10138000CBB870B5064600214F239F220846FFF7D1
:10139000D9FF00240025304600F09EF86D1C502D2A
:1013A000F9D3641CA02CF5D370BD10B514460B46C0
:1013B0000246FFF7C7FF2046BDE8104000F08CB89A
:1013C0002DE9F05F1C468846814690282CD80846B7
:1013D000B8F1400F28D8203AD6B200F10F0309F136
:1013E000070241464846FFF7ADFF1E48002C4FF06C
:1013F00000041BD04FEA000B04EB061100251BF87C
:10140000017008EB040AF80705D0514609EB050006
:101410000A9AFFF7CAFF6D1C7F08EDB2082DF2D3C0
:10142000641CE4B2102CE7D3BDE8F09FDFF83880ED
:101430004FEA000904EB0611002519F80170F807BE
:1014400001D00A9801E0D8F8000000F045F86D1CC2
:101450007F08EDB2082DF2D3641CE4B2102CE9D35E
:10146000E2E7000088230008000000202DE9F84F83
:1014700000261D4691468A4607463446DDF82880F8
:1014800025E0281B401EC1B20A2000F051FFB9FB25
:10149000F0F00A21B0FBF1F201FB120026B9691E3F
:1014A0008C4201DA40B101263030C2B207EBC400F1
:1014B0000023CDF8008005E0002307EBC4002022C4
:1014C000CDF800805146FFF77BFF641CE4B2AC42CC
:1014D000D7D3BDE8F88F000010B5044601220821DB
:1014E0000548FFF72FF8C4F3072000F023F8E0B217
:1014F000BDE8104000F01EB80008024010B50446D8
:10150000012208210348FFF71DF82046BDE81040DE
:1015100000F010B80008024010B50446002208216F
:101520000348FFF70FF82046BDE8104000F002B86E
:101530000008024070B5144E0546002210213046C6
:10154000FFF700F80024002201213046FEF7FAFFE1
:10155000280601D5012200E0002202213046FEF7D4
:10156000F1FF012211463046FEF7ECFF6806641CCD
:10157000050EE4B2082CE6D33046BDE870400122E7
:101580001021FEF7DFBF00000008024010B5934CA9
:10159000002204212046FEF7D5FFC820FEF7C4FE36
:1015A000012204212046FEF7CDFFC820FEF7BCFE35
:1015B000012220212046FEF7C5FF7820FEF7B4FE69
:1015C0001120FFF7A9FF7820FEF7AEFEB120FFF74C
:1015D000A3FF0520FFF792FF3C20FFF78FFF3C2081
:1015E000FFF78CFFB220FFF797FF0520FFF786FF7C
:1015F0003C20FFF783FF3C20FFF780FFB320FFF77D
:101600008BFF0520FFF77AFF3C20FFF777FF3C2098
:10161000FFF774FF0520FFF771FF3C20FFF76EFF17
:101620003C20FFF76BFFB420FFF776FF0320FFF7A6
:1016300065FFC020FFF770FFAB20FFF75FFF0B20B7
:10164000FFF75CFF0420FFF759FFC120FFF764FF9D
:10165000C520FFF753FFC220FFF75EFF0D20FFF705
:101660004DFF0020FFF74AFFC320FFF755FF8D20F5
:10167000FFF744FF6A20FFF741FFC420FFF74CFF4C
:101680008D20FFF73BFFEE20FFF738FFC520FFF767
:1016900043FF0F20FFF732FFE020FFF73DFF072059
:1016A000FFF72CFF0E20FFF729FF0820FFF726FF8A
:1016B0000720FFF723FF1020FFF720FF0720FFF789
:1016C0001DFF0220FFF71AFF0720FFF717FF092071
:1016D000FFF714FF0F20FFF711FF2520FFF70EFF84
:1016E0003620FFF70BFF0020FFF708FF0820FFF769
:1016F00005FF0420FFF702FF1020FFF7FFFEE120A7
:10170000FFF70AFF0A20FFF7F9FE0D20FFF7F6FEAC
:101710000820FFF7F3FE0720FFF7F0FE0F20FFF78A
:10172000EDFE0720FFF7EAFE0220FFF7E7FE0720A5
:10173000FFF7E4FE0920FFF7E1FE0F20FFF7DEFED2
:101740002520FFF7DBFE3520FFF7D8FE0020FFF74E
:10175000D5FE0920FFF7D2FE0420FFF7CFFE1020B0
:10176000FFF7CCFEFC20FFF7D7FE8020FFF7C6FE78
:101770003A20FFF7D1FE0520FFF7C0FE3620FFF725
:10178000CBFE7820FFF7BAFE2120FFF7C5FE292007
:10179000FFF7C2FE2A20FFF7BFFE0020FFF7AEFED4
:1017A0001A20FFF7ABFE0020FFF7A8FE6920FFF725
:1017B000A5FE2B20FFF7B0FE0020FFF79FFE0120C3
:1017C000FFF79CFE0020FFF799FEA020FFF796FE92
:1017D000BDE810402C20FFF79FBE0000000802402B
:1017E000F0B587B014216846FEF722FD2948002491
:1017F000016841F010010160016801F010010591DC
:10180000016841F004010160016801F004010591E3
:10181000016841F080010160016801F080010591DB
:10182000016841F001010160016801F001010591C9
:10183000016841F0020101600068174E00F00200EB
:10184000059000223F213046FEF77CFE134F002218
:10185000C0213846FEF776FE1820CDE9000469461F
:101860000F480294FEF78AFD3F2000900125CDE944
:101870000154694630460394FEF780FDC020009075
:10188000CDE90154694638460394FEF777FD07B069
:10189000F0BD000030380240000802400000024065
:1018A0000010024010B58AB0002407941C2168463D
:1018B0000894FEF7BDFC13484FF08041C0E90014C6
:1018C00042F23311C0E9024104618461FFF790FBE9
:1018D000079407A90B480894FFF764F96020CDE945
:1018E000000402940022694606480494FFF718FB9E
:1018F000042269460348FFF713FB0248FFF7D4FAB6
:101900000AB010BD8003002010B58CB024216846B9
:10191000FEF78EFC0024114809940F490A940160D7
:101920005321C0E90114C460046184610120CDE940
:101930000004CDE902040494CDE90540079469460A
:1019400006480894FFF711FA099409A903480A9474
:10195000FFF728F90CB010BD00040040C0030020C0
:1019600010B58CB024216846FEF762FC00241148B3
:1019700009940F490A94C0E900148460C4600461AA
:1019800084610120CDE90004CDE902040494CDE98D
:1019900005400794694607480894FFF7E6F909945B
:1019A00009A904480A94FFF7FDF80CB010BD000027
:1019B000000800400004002010B586B00024114843
:1019C000009401940294039404940D4905940160D9
:1019D0005321C0E901140121C0E903148461FFF718
:1019E00002F94FF48050009069460648FFF752F91B
:1019F000049404A903480594FFF7D4F806B010BD79
:101A0000000C004040040020FEE77047704770471C
:101A1000FEF7A4BD30B593B030216846FEF708FC50
:101A200014210CA8FEF704FC19480025016841F0B8
:101A300080510160006800F08050119015480168E5
:101A400041F4804101600068022400F4804011905C
:101A500001200090000401908001CDE9064008AA11
:101A60000420A82182E813000B906846FEF7F8FED8
:101A70000CA90F2081E831004FF4A0500F90E00234
:101A8000109005210CA8FEF703FE13B030BD000036
:101A900040380240007000401048016841F4700175
:101AA00001600F48016841F0010101600C4A00210A
:101AB0000832116002680B4B1A400260031D0A4A8B
:101AC0001A60026822F48022026005480C3001602E
:101AD00002495806803908607047000088ED00E030
:101AE00000380240FFFFF6FE10300024F0B5026817
:101AF000254C264D264E274F274B4FF0804CA042B9
:101B000009D0604507D0A84205D0B04203D0B84202
:101B100001D0984204D122F0700E4A6842EA0E02C7
:101B2000A0421BD0604519D0A84217D0B04215D0B2
:101B3000B84213D0984211D0184DA8420ED0184D7B
:101B4000A8420BD0174DA84208D0174DA84205D087
:101B5000164DA84202D0164DA84203D122F440757A
:101B6000CA682A434D6922F080022A4302608A68CB
:101B7000C2620A688262A04201D0984201D109691A
:101B8000016301214161F0BD0000014000040040FB
:101B900000080040000C00400004014000400140EB
:101BA000004401400048014000180040001C004073
:101BB0000020004010B501F01F030121046A994084
:101BC0008C430462016A9A401143016210BD10B552
:101BD000846842EA032224F47F440A432243826059
:101BE00010BD826822F070020A4342F00701816052
:101BF00070470000F0B5026A22F001020262036A37
:101C000042688469124E24F073050C682C4323F05B
:101C100002058B682B430D4DA84201D0B04205D17F
:101C200023F00807CB683B4323F00403A84201D00C
:101C3000B04205D14D6922F4407215438A692A43A6
:101C400042608461496841630362F0BD0000014065
:101C500000040140F0B5026A22F010020262026A3A
:101C6000436884690D6824F4E64444EA05248D68D9
:101C700022F0200242EA05120F4D104EA84201D078
:101C8000B04206D1CF6822F0800242EA071222F069
:101C90004002A84201D0B04207D14D6923F440630D
:101CA00043EA85038D6943EA85034360846149689B
:101CB00081630262F0BD00000000014000040140A9
:101CC000F0B5026A22F480720262026A4368C46953
:101CD00022F4007224F073050C68124E2C438D68B8
:101CE00042EA05220E4DA84201D0B04206D1CF688B
:101CF00022F4006242EA072222F48062A84201D064
:101D0000B04207D14D6923F4405343EA05138D696E
:101D100043EA05134360C4614968C1630262F0BDD0
:101D2000000001400004014030B5026A22F48052F4
:101D30000262046A4268C3690D6823F4E64343EA19
:101D400005238D6824F4005444EA0534084DA84264
:101D500002D0084DA84204D14D6922F4804242EAE3
:101D600085124260C36149680164046230BD0000AD
:101D7000000001400004014010B5036A046A24F029
:101D800001040462846924F0F00444EA021423F09C
:101D90000A020A438461026210BD10B5036A23F08F
:101DA000100303628369046A23F4704343EA023236
:101DB00024F0A00343EA01118261016210BD10B555
:101DC000806B0021C185C184FFF762F910BD0168F5
:101DD000CA6822F49072CA6001684A6922F001025E
:101DE0004A61202180F83A10704710B590F83A10F7
:101DF000222901D0022010BD8168B1F5805F11D089
:101E00000169002901681FD0496801F07F03816AD8
:101E10004A1C82620B70C18D491E0904090CC185E0
:101E200018D02BE00269816A002A0268526805D046
:101E3000D2B20A80816A491C8162ECE7C2F30802CF
:101E40000A80816A891CF7E74A68816A4B1C8362B1
:101E50000A70E0E70168CA6822F02002CA600168DF
:101E6000CA6822F48072CA6001684A6922F00102DD
:101E70004A61202180F83A10FFF704FA002010BDD3
:101E80002DE9F041044600680169E26821F44051FF
:101E9000114301612169A068E26908436169114346
:101EA00022680843D16849F20C6399430143D16029
:101EB00020684169A26921F4407111434161E269DE
:101EC0006425B2F5004F9748974922684FF03208D1
:101ED0003FD08A4201D082427CD1FEF781FC00EBE8
:101EE000C00101EB001061688900B0FBF1F6FEF75C
:101EF00077FC00EBC00101EB001061688900B0FBCA
:101F0000F1F0B0FBF5F06FF01801484306EB8001EB
:101F100008EB0110B0FBF5F000F0F006FEF760FCF6
:101F200000EBC00101EB001061688900B0FBF1F02B
:101F3000B0FBF5F006EB0016FEF752FC00EBC0011B
:101F400001EB001061688900B0FBF1F7FEF748FC77
:101F5000D2E08A4201D082423DD1FEF741FC00EB43
:101F6000C00101EB001061684900B0FBF1F0B0FB6B
:101F7000F5F00601FEF734FC00EBC00101EB0010A8
:101F800061684900B0FBF1F7FEF72AFC00EBC001E5
:101F900001EB001061684900B0FBF1F0B0FBF5F017
:101FA0006FF01801484307EB800108EBC100B0FB5C
:101FB000F5F000F0F80006EB4006FEF711FC00EB30
:101FC000C00101EB001061684900B0FBF1F7FEF7BA
:101FD00007FC3CE055E0FEF7F3FB00EBC00101EB32
:101FE000001061684900B0FBF1F0B0FBF5F00601AC
:101FF000FEF7E6FB00EBC00101EB00106168490051
:10200000B0FBF1F7FEF7DCFB00EBC00101EB0010C9
:1020100061684900B0FBF1F0B0FBF5F06FF018011A
:10202000484307EB800108EBC100B0FBF5F000F07E
:10203000F80006EB4006FEF7C3FB00EBC00101EB26
:10204000001061684900B0FBF1F7FEF7B9FB00EB47
:10205000C00101EB001061684900B0FBF1F0B0FB7A
:10206000F5F06FF01801484307EB800108EBC10061
:10207000B0FBF5F000F00700216830448860BDE84F
:10208000F081FEF79DFB00EBC00101EB00106168E1
:102090008900B0FBF1F6FEF793FB00EBC00101EB0A
:1020A000001061688900B0FBF1F0B0FBF5F06FF053
:1020B0001801484306EB800108EB0110B0FBF5F076
:1020C00000F0F006FEF77CFB00EBC00101EB001016
:1020D00061688900B0FBF1F0B0FBF5F006EB00168B
:1020E000FEF76EFB00EBC00101EB00106168890098
:1020F000B0FBF1F7FEF764FB00EBC00101EB001051
:1021000061688900B0FBF1F0B0FBF5F06FF01801E9
:10211000484307EB800108EB0110B0FBF5F000F03D
:102120000F00A9E7001401400010014090F8391099
:10213000212901D0022070478168B1F5805F016AD2
:102140000BD04A1C0262026809785160C18C491E9A
:102150000904090CC1840ED017E009880268C1F394
:102160000801516001690029016A02D0491C01621D
:10217000ECE7891CFBE70168CA6822F08002CA60AC
:102180000068C16841F04001C160002070472DE93E
:10219000F041984617460E460446069D1DE0681C11
:1021A0001BD02DB1FEF7D4F9A0EB0800A84214D93A
:1021B0002068C16821F4D071C1602068416921F0B4
:1021C00001014161202084F8390084F83A000020A0
:1021D00084F838000320BDE8F0812068006836EA02
:1021E000000004D00020B842D9D00020F3E701203D
:1021F000F9E700000148FEF74DBF00008004002011
:10220000FEE70907090E002804DB00F1E02080F852
:102210000014704700F00F0000F1E02080F8141D5A
:10222000704702E008C8121F08C1002AFAD170479F
:102230007047002001E001C1121F002AFBD1704746
:1022400008B5FEF793F9FFF7E5FBFFF7C9FAFFF7CB
:102250005BFB324830490C2201604FF4E1314160B0
:1022600000218160C160C0E904128161C161FEF793
:1022700099FFFFF717FBFFF773FBFFF79DFBFFF7D6
:1022800085F94FF6FF742046FFF77BF82448234674
:102290000522046023492148FEF7F5FF214C241F45
:1022A0006188208800F04CF80020FFF76AF81E4D86
:1022B0001E4E42F2D0084FF4FA694FF478474EF6BA
:1022C000677A10212846FEF731F9A0B93220FEF7CF
:1022D0003DF810212846FEF729F960B920883230F0
:1022E00080B22080404502D94846A4F80090618819
:1022F00080B200F025F80523524600211C200097EB
:10230000FFF7B4F840213046FEF715F9802130463A
:10231000FEF711F9D5E7000000100140800400200D
:10232000000000206803002000100240000002406E
:102330000246012000E05043491EC9B2FBD270475B
:1023400070B58EB0602500240095CDE901040E46DD
:10235000224669460B480494FEF7E2FD0021094835
:10236000FEF774FECDE908640795042207A9054825
:102370000B94FEF7D5FD04210248FEF767FE0EB070
:1023800070BD00008003002000000000000000007D
:102390000000000000000000000000080808080815
:1023A000080800001818000000486C241200000003
:1023B00000000000000000000000002424247F1220
:1023C00012127F12121200000000081C2A2A0A0CA6
:1023D0001828282A2A1C080800000022251515158F
:1023E0002A585454542200000000000C1212120A01
:1023F00076252911916E00000006060403000000F6
:102400000000000000000000004020101008080834
:1024100008080810102040000002040808101010DE
:1024200010101008080402000000000008086B1CCF
:102430001C6B0808000000000000000008080808E5
:102440007F080808080000000000000000000000ED
:102450000000000006060403000000000000000069
:10246000FE0000000000000000000000000000006E
:102470000000000006060000000080404020201000
:10248000100808040402020000000018244242421E
:102490004242424224180000000000080E080808CA
:1024A00008080808083E00000000003C42424220A4
:1024B00020100804427E00000000003C4242201828
:1024C00020404042221C000000000020302824242C
:1024D00022227E20207800000000007E0202021AE4
:1024E00026404042221C0000000000382402021A4C
:1024F00026424242241800000000007E22221010D2
:1025000008080808080800000000003C4242422475
:1025100018244242423C000000000018244242427B
:1025200064584040241C00000000000000001818FF
:102530000000000018180000000000000000000863
:1025400000000000000808040000004020100804FB
:1025500002040810204000000000000000007F007E
:1025600000007F00000000000000000204081020AE
:1025700040201008040200000000003C4242464097
:1025800020101000181800000000001C225A555599
:1025900055552D42221C0000000000080818141494
:1025A000243C224242E700000000001F2222221E9B
:1025B00022424242221F00000000007C42420101F0
:1025C00001010142221C00000000001F2242424281
:1025D00042424242221F00000000003F4212121EEF
:1025E00012120242423F00000000003F4212121E3F
:1025F00012120202020700000000003C2222010128
:1026000001712122221C0000000000E742424242E8
:102610007E42424242E700000000003E08080808EF
:1026200008080808083E00000000007C1010101088
:10263000101010101010110F0000007722120A0E57
:102640000A12122222770000000000070202020292
:1026500002020202427F0000000000773636363662
:102660002A2A2A2A2A6B0000000000E346464A4A2A
:1026700052525262624700000000001C2241414158
:1026800041414141221C00000000003F42424242C1
:102690003E020202020700000000001C22414141EC
:1026A00041414D53321C60000000003F4242423E17
:1026B0001212222242C700000000007C42420204A3
:1026C00018204042423E00000000007F49080808F0
:1026D00008080808081C0000000000E742424242C7
:1026E00042424242423C0000000000E742422224B3
:1026F00024141418080800000000006B49494949D7
:102700005555362222220000000000E742242418FA
:102710001818242442E70000000000772222141435
:1027200008080808081C00000000007E2120101086
:1027300008040442423F000000780808080808081E
:1027400008080808080878000000020204040808C5
:102750000810102020204040001E101010101010F3
:102760001010101010101E0000384400000000006F
:102770000000000000000000000000000000000059
:1027800000000000000000FF00060800000000003C
:102790000000000000000000000000000000003CFD
:1027A0004278444242FC0000000000030202021A88
:1027B00026424242261A00000000000000000038B5
:1027C00044020202443800000000006040404078AB
:1027D0004442424264D80000000000000000003C77
:1027E000427E0202423C0000000000F08808087EA1
:1027F00008080808083E0000000000000000007CF7
:1028000022221C023C42423C000000030202023A27
:102810004642424242E700000000000C0C00000E5D
:1028200008080808083E00000000003030000038AA
:10283000202020202020221E00000003020202721D
:10284000120A1612227700000000000E080808087D
:1028500008080808083E0000000000000000007F93
:102860009292929292B70000000000000000003B9C
:102870004642424242E70000000000000000003CE7
:1028800042424242423C0000000000000000001BA7
:1028900026424242221E020700000000000000788B
:1028A00044424242447840E00000000000000077CB
:1028B0004C040404041F0000000000000000007C21
:1028C00042023C40423E0000000000000008083E7A
:1028D000080808080830000000000000000000633D
:1028E0004242424262DC000000000000000000E7BB
:1028F000422424140808000000000000000000EB3F
:1029000049495555222200000000000000000076D1
:1029100024181818246E000000000000000000E7D2
:102920004224241418080807000000000000007E5C
:1029300022100808447E000000C020202020201023
:10294000202020202020C000101010101010101087
:1029500010101010101010100006080808080810B9
:1029600008080808080806000C32C2000000000031
:102970000000000000000000FFFFFFFFFFFFFFFF5F
:10298000FFFFFFFFFFFFFFFFFFFFFFFFFFFFFFFF57
:10299000FFFFFFFFFFFFBEF7FFFFDEFF38C6928C91
:1029A0008E6B6E6B107C96AD3CE7FFFFFFFFFFFF69
:1029B000FFFFFFFFFFFFFFFFFFFFFFFFFFFFFFFF27
:1029C000FFFFFFFFFFFFFFFFFFFFFFFFFFFFFFFF17
:1029D000FFFFFFFFFFFFFFFFFFFFFFFFFFFFFFFF07
:1029E000FFFFFFFFFFFF5DEF159D4F636C420A3253
:1029F0008829461925194521E8318E6B38C6FFFF15
:102A0000FFFFFFFFFFFFFFFFFFFFFFFFFFFFFFFFD6
:102A1000FFFFFFFFFFFFFFFFFFFFFFFFFFFFFFFFC6
:102A2000FFFFFFFFFFFFFFFFFFFFFFFFFFFFFFFFB6
:102A3000FFFFFFFF36A51053104B51530F4B6C3A5D
:102A4000E93167212519E410A30862008308CB52FD
:102A50009AD6FFFFFFFFFFFFFFFFFFFFFFFFFFFF14
:102A6000FFFFFFFFFFFFFFFFFFFFFFFFFFFFFFFF76
:102A7000FFFFFFFFFFFFFFFFFFFFFFFFFFFFFFFF66
:102A80003CE77063B363B87CF56311434D32EA29C8
:102A9000882126190519051904110411E410830071
:102AA000A308728CFFFFFFFFFFFFFFFFFFFFFFFF89
:102AB000FFFFFFFFFFFFFFFFFFFFFFFFFFFFFFFF26
:102AC000FFFFFFFFFFFFFFFFFFFFFFFFFFFFDBDE5B
:102AD0004B3AF042356C544BB1322E2AEB21A921EE
:102AE00067190519041104110411041104110519C1
:102AF000E4104200AF73FFFFFFFFFFFFFFFFFFFF88
:102B0000FFFFFFFFFFFFFFFFFFFFFFFFFFFFFFFFD5
:102B1000FFFFFFFFFFFFFFFFFFFFFFFF5DEF09323A
:102B20004C32104B8F324F2A2E2ACC198919892109
:102B30004719051904110411C410C410041104111B
:102B40000411E41042003184FFFFFFFFFFFFFFFF8D
:102B5000FFFFFFFFFFFFFFFFFFFFFFFFFFFFFFFF85
:102B6000FFFFFFFFFFFFFFFFFFFFFFFFEC524719D3
:102B70004C320B2AEC21EC210C22915BEE4A06111F
:102B800026190419E410E410A7296621A3080519E1
:102B900004110411E4108200F7BDFFFFFFFFFFFFE7
:102BA000FFFFFFFFFFFFFFFFFFFFFFFFFFFFFFFF35
:102BB000FFFFFFFFFFFFFFFFFFFF35A58308882111
:102BC00088218921AA218A216B42718CFFFF728C96
:102BD00083080411C4082942FBDE5DEFEC5A830828
:102BE0000411041104118308E831DFFFFFFFFFFF28
:102BF000FFFFFFFFFFFFFFFFFFFFFFFFFFFFFFFFE5
:102C0000FFFFFFFFFFFFFFFFBEF7C731C41025190D
:102C1000261947194719A8298A52284A55ADFFFF96
:102C2000E831A30805194D6B4D6BFFFF7DEF452182
:102C3000C410041104110411620076ADFFFFFFFF00
:102C4000FFFFFFFFFFFFFFFFFFFFFFFFFFFFFFFF94
:102C5000FFFFFFFFFFFFFFFF96B56200041104199D
:102C600005110519C4088B4AB6B55DEFF7BDFFFF26
:102C70008E6B62002942AA5A0842FFFFFFFFCC5226
:102C80008308041104110411A308AD52FFFFFFFFD4
:102C9000FFFFFFFFFFFFFFFFFFFFFFFFFFFF1CE73F
:102CA000FFFFFFFFFFFFFFFF4E63620004110411EF
:102CB0000411E41062008E63FFFFFFFFFFFFFFFFC0
:102CC000CF730100F39C2C6396B5FFFFFFFF2D5BD4
:102CD0008300041104110411E41067213DEFFFFF8C
:102CE000FFFFFFFFFFFFFFFFF8BDB7B59EEFCB5221
:102CF000B394FFFFFFFFDFFFE831A30804110411C5
:102D000004110411A3084942FFF7FFF7FFFFFFFF7B
:102D10006A4A01007284FFFFFFFFFFF7DFEF093A05
:102D2000A3080411041104110411051118BEFFFFBA
:102D3000FFFFFFFFFFFFFFFFF07B6200E831C731BD
:102D4000410035A5FFFF5DEF4621C41004110411B9
:102D500004110411E410A308769DFFF7FFFFB7AD3F
:102D6000A308A308C7319EE7FFF7FFF776A5A308DE
:102D7000E4100411041104110511051135A5FFFF1C
:102D8000FFFFFFFFFFFFFFFFDBDEA7298300C4106B
:102D9000C410C4101CE79EEF0511E41004110411C7
:102DA000041104110419C408E510D16BD16BC508D6
:102DB0006400A50843002B32779DB3842519C41005
:102DC000041104110411041125192609359DFFFF72
:102DD000FFFFFFFFFFFFFFFFFFFFAF73620004195C
:102DE000051982000D5B8E9B621005110411041100
:102DF0000419E41085000511C439815A407B229CD6
:102E000043AC03A4839B82728249C218A400C5000C
:102E1000E41004190411051947196711EC5ABEFF93
:102E2000FFFFFFFFFFFFFFFFDFFFDBDEC410E4104B
:102E300004110511A41801C08388E40005190419C0
:102E4000C5084421438323D542FEE4FE27FF07FF44
:102E5000A4FE64FE03FEA3FDE2FC42EC83B3246205
:102E6000E510C40804192619A81987210090D3BCBD
:102E7000FFFFFFFFFFFFFFFFDFFFFFFF107C4200B0
:102E800005190511832801D044F8A348E400C508BA
:102E9000445A02EDE2FD02FE66FE74FFB8FF73FFC6
:102EA000E7F6A6F645F6A4F5C3FC62FCC2FCC2FC3C
:102EB000E3CBC449061188198701A49001F8EC9A64
:102EC000FFFFFFFFFFFFFFFFFFFFFFFFBEF7E83140
:102ED00083000509824001C023F885F0A348A400BF
:102EE000445A02FD23CCC2DC04FE28FE48F646F616
:102EF00024F6E4F564FDE3FC62FCC2FC02E402DCBF
:102F0000E2FCA47A48016701C47824F802F884B08E
:102F10007DE7FFFFFFFFFFFFFFFFFFFFFFFFDBDEA0
:102F20002519A300C43802E022D844F8A6F8A478F2
:102F30006300432183728339829B21F561FD22FD69
:102F4000E2FCA2FC42FC42FC42FC22AB8341C39265
:102F5000045226012519A49844F823F802F8A4D0B5
:102F60009EEFFFFFFFFFFFFFFFFFFFFFFFFFFFFFE2
:102F70009AD68729A50043B822F823E065F8E8F837
:102F800007C983484200A30084006329A27A62B380
:102F9000A2CB62D302BB828A8339A400E500E5009C
:102FA000E508C46064D844F824F823F802F883885C
:102FB000DBC6FFFFFFFFFFFFFFFFFFFFFFFFFFFF7E
:102FC000FFFF3DE7505B083123E843F844F065F824
:102FD00009F9ABF989D10689A348421802004200D9
:102FE00061008200620062008300A320C450A588B3
:102FF00085D865F844F844F823F823F803D0821004
:10300000C7295DEFFFFFFFFFFFFFFFFFFFFFFFFF90
:10301000FFFFFFFFFFFF6C32A53802D823F865F8E9
:1030200066F8A7F84AF90CFA4DFA4CEA0BD2A9B99E
:1030300068B147A927B107B907D1E7E8C7F8A7F8EA
:1030400065F865F844F823F803F802D0A3280509C9
:10305000C408EC5AFFFFFFFFFFFFFFFFFFFFFFFF6A
:10306000FFFFFFFFFBDE0519C400A741E6C003F820
:1030700086F8A7F887F886F8C7F829F98AF9ABF92E
:10308000ABF98BF96AF929F908F9C7F8A6F886F8B7
:1030900065F864F823F802F006B12529E400E4108D
:1030A00025192519149DFFFFFFFFFFFFFFFFFFFFFD
:1030B000FFFFFFFF96AD620082083595BACE8BA266
:1030C00044D025F887F8A7F8C7F8A7F887F886F856
:1030D00086F886F887F8A7F8A7F8A6F885F865F8BF
:1030E00064F824F064B80D93BBB6CF638308041171
:1030F000E4106621493A5DEFFFFFFFFFFFFFFFFF8E
:10310000FFFFFFFFD3944200E410BBCEFFFFBEE7FA
:1031100076B5CCAA07C145E045F846F866F886F8CA
:1031200086F886F886F865F845F865F865E844D0CD
:1031300043A8018882903CD7FFEF5595830804117E
:10314000041105194619B394FFFFFFFFFFFFFFFFAE
:10315000FFFFFFFFB394410086215DDFFFFFFFFF0C
:10316000FFFFDFE77AC6D3B44EB32AC268D1E6E0E8
:10317000A6E8A5E8A5E8E6D888C906A922A802A875
:1031800000A000C800D8F7E5FFE7F8ADC410E410D0
:103190000411E41005118B4AFFFFFFFFFFFFFFFF43
:1031A000FFFFFFFF55A54100A7295DDFFFF7FFFFE8
:1031B000FFFFFFFFFFFFFFFFFFEF7DDFDBCE59CEFD
:1031C000F8CDD7CDF7C579CEFBBEABA203F045F85D
:1031D00042D043E800F072D4FFDF39AEE410E410CF
:1031E0000411E41005118729FFFFFFFFFFFFFFFF18
:1031F000FFFFFFFF59CE830846211CD7FFF7FFFFD3
:10320000FFFFFFFFFFFFFFFFFFFFFFFFFFFFFFFFCE
:10321000FFFFFFFFFFFFFFFFFFEF8BBA04F845F84A
:1032200062E044F000F88EDBFFDFF8A5C410E41084
:10323000E4100411E4102519FFFFFFFFFFFFFFFF5B
:10324000FFFFFFFFBEF78729830839B6FFF7DFF7D7
:10325000FFFFFFFFFFFFFFFFFFFFFFFFFFFFFFFF7E
:10326000FFFFFFFFFFFFFFFFBEE74ABA03F845F885
:1032700064F844F800F86EE3FFD7F48C8308041177
:10328000E410E410E4100519FFFFFFFFFFFFFFFF4C
:10329000FFFFFFFFFFFFEF7300007284FFEFBEEF41
:1032A000DFFFFFFFFFFFFFFFFFFFFFFFFFFFFFFF4E
:1032B000FFFFFFFFFFFFFFFFDFE78BBA03F845F8D3
:1032C00045F823F800F8D3D4FFD74E5B2100293A04
:1032D00055A58308C4102519FFFFFFFFFFFFFFFF5F
:1032E000FFFFFFFFFFFFFBDEA308E8319EDF9EE745
:1032F000BFEFFFFFFFFFFFFFFFFFFFFFFFFFFFFF2E
:10330000FFFFFFFFFFFFFFFFFFF751BC02E003F8E5
:1033100003F043E0ECC27ECFFCBE46212100D394F3
:10332000FFFF518400008729FFFFFFFFFFFFFFFF22
:10333000FFFFFFFFFFFFFFFF51840000F48CFFEF52
:103340009EE7BFEFDFFFFFFFFFFFFFFFFFFFFFFF76
:10335000FFFFFFFFFFFFFFFFFFFF3DDF55BD52BC3B
:1033600072BCB7B55DC7FFDFF06B0000093ABFF76D
:10337000FFFFFFFF149D55A5FFFFFFFFFFFFFFFFAE
:10338000FFFFFFFFFFFFFFFFFFFFAC4AA408BBBE2C
:10339000DFE77EE7BEEFDFF7DFFFFFFFFFFFFFFFA7
:1033A000FFFFFFFFFFFFFFFFDFFFDFF7FFEFDFDFC5
:1033B000BFD79ED7DFDFD8A583082611DBD6FFFF56
:1033C000FFFFFFFFFFFFFFFFFFFFFFFFFFFFFFFF0D
:1033D000FFFFFFFFFFFFFFFF79EE8BDC2131A9210B
:1033E0003DCFBFDF7EDF9EE7BEEFBFEFDFF7DFF74A
:1033F000DFF7DFF7DFF7BFEFBEEF9EE77EDF5ED7D9
:103400005ED7DFDF9AB626194208EDA3BFFFFFFFA4
:10341000FFFFFFFFFFFFFFFFFFFFFFFFFFFFFFFFBC
:10342000FFFFFFFFFFFF74DDC0DB00FE42EE024244
:1034300089217BB6DFDF7ED77EDF7EDF9EE79EE7DA
:103440009EE79EE79EE77EDF7EDF5DD75DD79EDF4E
:10345000FFE7F8A50711E31802C560FDE6D3DBEE30
:10346000FFFFFFFFFFFFFFFFFFFFFFFFFFFFFFFF6C
:10347000FFFFFFFF9EF784BAC1FC42FE82FEA2FE60
:103480008183452174745EC7DFDF7ED75ED75DD749
:103490005ED75ED75DD75DD75ED79EDFFFE73DC7BE
:1034A000F1638408425226E629FF86FEE0F36AC3F0
:1034B000FFFFFFFFFFFFFFFFFFFFFFFFFFFFFFFF1C
:1034C000FFFFFFFF18DEC1D2A2FD22FE42FE42FE38
:1034D00062FEE2D4416A494253743BA63EC7BFD75D
:1034E000BFD7BFD7BFDFBFD73EC71AA6F263A72992
:1034F000824122B462FE83FEAAFE0FFF67FD63BA1B
:103500003CEFFFFFFFFFFFFFFFFFFFFFFFFFFFFF9E
:10351000FFFFFFFF9AE680D221FDC2FDE2F5C2F572
:1035200082F582FD62FD61DC219B846AE96A2C637D
:10353000AF6311746E632C63895A0452817AC2CBD3
:10354000E2FC62FD82FDC2FDC2FDE4FD24FD62CA13
:103550001CE7FFFFFFFFFFFFFFFFFFFFFFFFFFFF76
:10356000FFFFFFFFFFFFB1CC81D2C0F3C1FC02FD22
:1035700002FDE2FCC2FCC2FC81FC80FBC0C9A4814C
:1035800035AD59CE719C218100DAA1FB82FCA2FCF1
:1035900082FCA2FC02FD22FDE2FC00FC60DA90CC81
:1035A000FFFFFFFFFFFFFFFFFFFFFFFFFFFFFFFF2B
:1035B000FFFFFFFFFFFFFFFF59DE0DC406CBE4D284
:1035C00003DB03DBE3DAC3D2A4C209B3D2BC9EF7A8
:1035D000FFFFFFFFFFFFFBE60EB4A6BA83D2E3E2D4
:1035E00002EB22EB22E303DBE4D26AC3B6D5FFFF92
:1035F000FFFFFFFFFFFFFFFF0000000000000000D3
:103600000102030406070809000000000102030488
:10361000303600080000002080030000A8020008E7
:10362000E437000880030020400500003222000833
:10363000D12A8004FA0104080D1A1080010CF0FF51
:10364000FF0F308001040419246A070C091248098D
:10365000100401131A011914FFFF011A03082904A9
:10366000E90C3381812A0304261CFCFFFF3F1A402A
:103670000B5AC0282AC00C49041BFFFF4C22411AD8
:103680000468230E711B07815A14010760100B0197
:103690000E1898011C04E001181927F11A08C42318
:1036A0001F304A0C046809100C30FE3F0C30041027
:1036B00069041BC00C281E0D3030060E049C0C3013
:1036C00010044B188604101208060D300C860D30BD
:1036D00006EE0F3002FC0D30015B0CF040193C2A65
:1036E0000F081A109ED1299019CB4908890417E0B8
:1036F000FFFF0360C009130409161C59181A0104BE
:1037000029441A08045A100419F8130138041780C0
:10371000FF1F2603C0FFFF071A8004293D326032D5
:10372000181A0C135A030419A41C800108045E1C07
:10373000FCFFFF3F100928041AFC0432E062405AE3
:1037400080026DFC1F841002290C69184DF80F08C7
:103750000804128023FF7F290C490E2D8410A2201B
:1037600045280FFE3F0220F22702200220FA2F22D6
:1037700021022809122912290A2E02201AC95E994B
:1037800008165080408040195213FE1F1208120480
:103790002C02800162697829021AA0A51816100867
:1037A000B8080F0908090808BF0808091C092C08EF
:1037B0000A78CA1179012A04023CC87F3F08180B15
:1037C000A83F18210C110B12080A0E400E0A8A118C
:1037D0006460A00FA00F54494D3219FA11821013E2
:0437E00024F40000CD
:040000050800018965
:00000001FF
